:020000041000EA
:1000000093000000068186810682868206838683AD
:100010000684868406858685068686860687868784
:1000200017050000130505061365350073105530DC
:1000300017050010130505FD7310753017410010EA
:10004000130141FC73100134EF00705101A0130043
:100050000000130000001300000013000000130054
:100060000000130000001300000013000000130044
:100070000000130000001300000013000000010046
:100080007375043001A073002030000000000000F0
:100090000000000000000000000000000000000060
:1000A0000000000000000000000000000000000050
:1000B00000000000B72700209387078C7D57A38896
:1000C000E700035705002399E700828037070140C6
:1000D0008147130707206146B356F500858A89C614
:1000E000B386E700238006008507E397C7FEB707BE
:1000F0000140985B498F98DBB84381C5598DA8C3EF
:1001000082801345F5FF798DDDBF81471303700CA5
:1001100063C3D700828003C70500E36DE3FEB3022B
:10012000F60083C202002A9785072300570003C701
:10013000050093F7F70F05072380E500D1BFB72728
:1001400000209387078C9C4F81ED63EBA7003387DA
:10015000A740054563E3E7026361E602014582804B
:100160009386F7FF3387A640B337F000B3B6E600B7
:10017000B385B7400545E381D5FE8280AA95371740
:1001800000416313B50082808357470193F707024C
:10019000E5DF8347050005052310F700DDB71301F0
:1001A000C1EE2AC086DFA2DDA6DB48097CDD6CD566
:1001B00030D974D938DD1C023ECAA309010002C23D
:1001C00002470347070021E78345310168107D3767
:1001D000FE506E54DE5413014111828085060247A1
:1001E0003304D700034704006303C71C65FB91CEAB
:1001F00002469305310168103EC63AC4393722479A
:1002000093065002B2476306D71A22C055BF8146F3
:1002100013065002E9B71307D7F91377F70F5D46B6
:100220006367E61C373600100A071306C6143297B8
:100230001843028793068005631BD71A93844700EF
:100240009C433AC2014641473ECC8545B3B6E502E0
:100250003385E502B336D00063E4A7006389061056
:10026000814601CE130500037D146398A300930615
:10027000D002230ED100B28601461305E4FFB54239
:100280001303C10163EEA2001305F4FFB302D30010
:10029000238072007D15850265FD36949306F4FF78
:1002A00011CA1386460E08082A961305D0022304A5
:1002B000A6F2850637360010930386E8373600101D
:1002C00013048007130646E7D5E51A8635A0130602
:1002D00000036314C70011E0BA8329463306C40241
:1002E000130606FD3304C7000246E9A893844700BD
:1002F0009C43854630083ECC93053101681031356A
:1003000081A8938447009C4363DB0704B307F04054
:100310000546294715BF9043938447008146B3079C
:10032000D60083C707009DE793053101681036C4E6
:10033000E93BA24663FE8600158C373600108546E1
:10034000130606E79305310168107D147D3B75F4B3
:10035000A687BDB58506E1B7938447009C43014657
:100360004DBF93844700130780079C43D9BD7D147C
:10037000AA85E9BD33D5B70292423375E502639D84
:100380008200329503450500B302D3008506238021
:10039000A200B3D5E5020DBF1E95EDB73EC485465C
:1003A0009305310168109533A247BE8455B7E39198
:1003B00006E4130614009303000201449306A00709
:1003C00093052006130716003AC00347060063E0B2
:1003D000E602E3E2E5E413059003E36DE5E41305CB
:1003E000F002E366E5EE93065002E309D7FA3736EA
:1003F00000103EC495461306C6E95DB77111372556
:10040000002006C01305058C01478147230E050017
:10041000231F050018D15CD1130670028145130516
:100420008502EF20B023824037350010130545EADE
:100430001101B5B32A8781473E858507B306F700CA
:1004400083C6F6FFF5FA8280611106C222C02A84B3
:10045000D537AA8522851D33373500101305450A87
:100460008545293B924002440145210182801D714E
:1004700086CEA2CCA6CAB707014013078002238408
:10048000E7202547A384E720B7060040DC527D76AD
:100490001306F63FF18F93E70740DCD29307004045
:1004A0009CC602C4A2476352F72AB706004023A4A1
:1004B0000600DC520947A9838D8B639CE7283777B8
:1004C000DC02130707C0DC522146B717004183C680
:1004D000C700373500101305C5ED93E606F82386EF
:1004E000D700F166938606203357D702B71680E00F
:1004F00011831377F70F2380E700238207002380FF
:10050000070C03C7C7001377F7072386E70003C765
:10051000C7001377770F2386E70003C7C700136769
:1005200037002386E70003C7C7001377B70F23867A
:10053000E70003C74700799B2382E70003C7470012
:10054000759B2382E70003C7870013671700238486
:10055000E70003C787001377F703136707042384B3
:10056000E700B70780E0DC431307F00FD583BD8BAE
:100570001D8E83C736063317C7001347F7FFF98F61
:100580000D473317C700D98F93F7F70FA381F606EE
:1005900083C7160693E71700A380F6060931EF20FC
:1005A00020551545EF200051B7070140014685460B
:1005B000938707209305000261473395C6001353C4
:1005C00025011373F300630603003305F6002300CF
:1005D000B5000506E313E6FEB70601409C5A37074F
:1005E000C4FF7D17F98F32C021659CDA854513055C
:1005F000351CE93C814513050020C93C3735001006
:100600001305C5EE693EB72700209384078C23A805
:10061000040423AA040423AC040437F7031023AE14
:1006200004040043024681452685A0D0EF20100334
:1006300037350010A285130585F095363735001043
:10064000130585F3A93E37350010F1451305C5F4B0
:10065000B93637350010130585F79136453337071E
:10066000004283264710984CF0503697118F1304A0
:10067000F7FF63E3C6003A84A854EC5405661306FA
:10068000863880CCF4D0653C6306051237360010FE
:100690001306C61AB7060140A0D423A60406930287
:1006A000860101478543C1060C4203A30603B395A7
:1006B000B30013C5F5FF3375650088DA02C84245FB
:1006C0004D43635DA308884A16832AC003250300AF
:1006D00082473395A300E98F99E34D8D498FB73752
:1006E000001011039387471DE39267FE885A110695
:1006F000C98D8CDAE31A56FA905AA1659385351C98
:100700004D8E90DA02C64D46B246635DD604B706FA
:100710000140C106944A1396A60063590604139635
:10072000B600635806041396C60063570604139672
:10073000D6006346060437070400B7064000558F0D
:10074000B8C885462388D4062DA8A24785073EC48D
:1007500091BB37376E0113070760B5B342450505F6
:100760002AC8B1BFB246850636C679BF3707200012
:10077000E9B737071000D1B7370708007DBFB8C801
:1007800069F3B44863860622B048F4486312D6225F
:10079000F44C9506F4CC8546A38DD4042399040625
:1007A00083C6440799E6B7060140B04213660620A7
:1007B000B0C2F8C803C7C40131C703D7E40139C3C5
:1007C0008850CC503367B50009C703D66407853A13
:1007D00015C983C58407014613858402EF20402292
:1007E00003D7E40180D023A204027D17420741838E
:1007F000239FE40001EB373500101305C5F9238E64
:100800000400713A03A5040883A544086166130631
:10081000066A353201CD984C23A204089306800D58
:1008200023A0E408370700402320D71003C7B405EE
:10083000630F071CAC483734001003A3C40583C6FC
:10084000B4051304C41A1305840293F6F60F014786
:100850002A86F14283230500639E751889456399B2
:10086000B630930680023307D7021305870022971C
:1008700058573295029723AE040483D7A408B0508A
:100880008145138717002395E40803C7940893F75D
:10089000F70FD0C493365700B306D040758F930638
:1008A0004005A382D40083D604067D464818A3845D
:1008B000E4082384F4003EC236C02388E400239376
:1008C0000400EF20A0593707021B130727103ADA5C
:1008D0007977130737C0231CE1021307C0FD230DEE
:1008E000E102130730FC230FE10237171718130733
:1008F000376C03C62401BAC037271B1C92478246B7
:10090000130797A1BAC209671307D7E14C18A30DC3
:10091000C10248087D46A30FF102231ED102231411
:10092000E104EF20205237350010130505FE85380D
:10093000B735001037350010014693854500130583
:10094000C500B13803D6240103D7640183D644011E
:1009500083C51401373500101305C50289303735BA
:100960000010FD451305C505EFF07F8337350010F6
:100970001305C507EFF0BF8201465C083387C70047
:1009800083450700373500101305C50832C0EFF066
:100990001F81024605061377F600631907203735D5
:1009A00000101305450932C0EFF06FFF0246F1B7A2
:1009B00005E7F44895C2F04C9306100363FEC600A9
:1009C000F04C9306F07C63E5C6028946A38DD404FF
:1009D00023990406F448B4C823AE040483C644072C
:1009E000E39906DCB7060140B0421376F6DFC9B3DF
:1009F0008D46E9BF050713058502E31D57E437352A
:100A000000101305C5FBEFF08FF9A38D040403A5B7
:100A1000040983A54409316613060635EFF02FF269
:100A2000630E050E984C23AA040823A8E40803C704
:100A300004076316072203D72407050742074183EB
:100A40002399E40683D62407130730066378D70C6E
:100A5000373500101305850CEFF06FF437070140B0
:100A600023990406344361761306C6E3F18E34C33A
:100A700037260020032706B6B706C4FFFD16758F7C
:100A8000B70601402320E6B637053C0001479386B0
:100A9000062013030002E1453356E500058A09C626
:100AA0003306D700230066000507E317B7FE3707B4
:100AB0003C00370408403735001058C81305C50EF0
:100AC000EFF0EFEDEF20001B373500101305051098
:100AD000EFF0EFEC4C4C373500101305C511EFF07B
:100AE0000FEC37070140344321661306361CD18EC4
:100AF00034C32932984C3735001093860408130507
:100B0000051398C223A20408B8D423A6040698CAE1
:100B100023AA040823880406EFF06FE803C74407FC
:100B2000E30F07B203A5840983A5C4093756020061
:100B30001306069FEFF0AFE0E30305B2984C83C6BF
:100B4000040A23AE040823ACE40837070140410738
:100B5000639C061085462380D40A145B93E6062026
:100B600014DB03C7140AE31C07AE238A0406C5BCC2
:100B70008D45639BB600930680023307D7021305A9
:100B8000070222977843F5B18545E390B6E89306CE
:100B9000007DE31CD3E6930680023307D7021305DA
:100BA00047012297185F32950297C1B97D47E31636
:100BB000E6DCB73700101385470A32C0EFF02FDEAE
:100BC00013077002238CE40637271122024613070D
:100BD000275498D437475566130737434C08138575
:100BE0000403D8D4EF200026373500101305850AFA
:100BF000EFF0EFDA81473307F40083458748373554
:100C000000101305C50B3EC0EFF06FD9824719479E
:100C10008507639DE702B73700101385470AEFF099
:100C20000FD813076004239FE4001307803E239B23
:100C3000E4060147814798D06146054781452685EE
:100C4000DCD0238EE400EF206021C1B337350010E3
:100C50001305450C3EC0EFF08FD4824769BF23993E
:100C60000406238804065DBD83C6140A2380040A93
:100C7000FD1693F6F60FA380D40A145B93F6F6DF05
:100C8000C5B5B70700401307800F23A0E71001A0E8
:100C9000370780E05C43D183F98B2300F7000147DD
:100CA000370580E085658546130600039317270006
:100CB000AA97AE972380D700A38007002381D7008F
:100CC0000507E315C7FE82808280711106C03737A1
:100CD000001013074769B73700109387076ABA8671
:100CE0003E856365F704373700101307076AB73787
:100CF00000109387876A6370F706BA86B7350010CD
:100D00009385756A998DE199A105BA9589A0139685
:100D10002700984232970C43D84232970CC385077C
:100D20009846E3E6E7FEB106E3FFA6FA9846814758
:100D300079FFD5BF984213962700329723200700EA
:100D40008507D842E3E8E7FEA1066386B600D842ED
:100D500081476DF3D5BF8D3F824011018280B70777
:100D6000004098438567938717106303F7008280DC
:100D7000411106C622C426C2893F193F37040840E4
:100D800085473CC837070042856793871770232043
:100D9000F71059209521EF108010B7040040DC5067
:100DA000B707100093870740DCD0372700421C4369
:100DB000F59B1CC383270411216713070780D98F74
:100DC0002328F41037D5FC001305F5BF9700001059
:100DD000E78060858347041293E747002300F412FD
:100DE000930700409CC402C00247A54763C9E700BF
:100DF0003E87824785073EC08247E35CF7FEB70720
:100E0000004023A40700F3670430EFF04FE6B24040
:100E10002244924441018280B746801F138706F323
:100E2000B727002093874796938686F7832307008A
:100E3000832247000323870048470C4B504B23A0D5
:100E4000770023A2570023A46700C8C78CCBD0CB60
:100E50006107E107E31CD7FCB727002003C74796CB
:100E60009307F00F631DF7003727002013074796FD
:100E700083470700C19B93E7A7002300F700B7272C
:100E8000002003C767969307F00F630FF710B7278B
:100E9000002003D78796C167FD176303F712B727B2
:100EA000002003D7A796C167FD176302F712B72783
:100EB000002003D7C796C167FD176301F712B72754
:100EC000002003A70797FD576307F712B7270020F5
:100ED00003A74797FD576302F714B727002003A71E
:100EE0008797FD57630DF714B727002003A7C7970F
:100EF000FD576308F716B727002003A70798FD578B
:100F00006303F718B727002003A74798FD57630E20
:100F1000F718B727002003A78798FD576309F71A2A
:100F2000B727002003A7C798FD576306F71CB7270C
:100F3000002003D70799C167FD176300F71EB72785
:100F4000002003D74799C167FD176303F71EB72732
:100F5000002003D76799C167FD176306F71EB727FF
:100F6000002003D78799C167FD176309F71EB727CC
:100F7000002003A7C799FD57630FF71EB72700206E
:100F800003A7079AFD576304F720B727002003A79C
:100F9000479AFD57630CF720B727002003A7879ACD
:100FA000FD576309F72282803727002013074796F1
:100FB00083472700C19B93E737002301F700C1BD9A
:100FC000B72700201307D0F82384E796C9BDB727B9
:100FD0000020130770FB2385E796D1BD372700203B
:100FE000130747968357870093F707C093E70714C3
:100FF0002314F700E9B537270020130747965C470D
:10100000FD76F58F93E78725B70601FCFD16F58F72
:10101000B706AB02D58F5CC755BD37270020130735
:1010200047961C4BFD76F58F93E7870CB70601FCBE
:10103000FD16F58FB706E400D58F1CCB79BD372799
:101040000020130747965C4BFD76F58F93E7074B1F
:10105000B70601FCFD16F58FB706AB02D58F5CCB4A
:1010600061B537270020130747961C4FFD76F58F93
:1010700093E70719B70601FCFD16F58FB706E400E4
:10108000D58F1CCF8DBD37270020130747965C4FA7
:10109000FD76F58F93E78770B70601FCFD16F58F97
:1010A000B706AB02D58F5CCFB1BD37270020130741
:1010B00047961C53FD76F58F93E78725B70601FC0D
:1010C000FD16F58FB706E400D58F1CD399B53727E9
:1010D0000020130747965C53FD76F58F856693864F
:1010E0000696D58FB70601FCFD16F58FB706AB0245
:1010F000D58F5CD335B537270020130747961C578B
:10110000FD76F58F93E70732B70601FCFD16F58FE4
:10111000B706E400D58F1CD719BDB72700209387E9
:10112000479603D7C7021367F73F2396E70201BD2F
:10113000B72700209387479603D70703FD76758F5F
:101140002398E70229B5B72700209387479603D74E
:101150002703FD76758F2399E70211B53727002005
:101160001307479683574703FD76F58F93E7C740EC
:10117000231AF702EDBB37270020130747961C5FA1
:10118000B7060080F58F93E757031CDFC5BB3727F1
:101190000020130747965C5FB7060080F58FB7B64F
:1011A000030093860698D58F5CDFC5B337270020F0
:1011B000130747963C43FD76F58F8566938686BB7D
:1011C000D58FB70601FCFD16F58FB7065503D58FF1
:1011D0003CC3D9B337270020130747967C43FD76DD
:1011E000F58F93E7077DB70601FCFD16F58FB7066F
:1011F0003902D58F7CC38280B707084003A6471009
:101200003747FCFF7D17798E372700201307479655
:1012100083562700BD8ABA06D18E23A2D71003A613
:101220008710C1769386F60F758E83464700A20617
:10123000D18E23A4D71003A6C710E1769386F607B4
:10124000758E834667009E06D18E23A6D71003A60F
:101250000711B70604FFFD16758E145FCA06D18EFE
:1012600023A8D710372600421446B7070088FD1779
:10127000FD8E1C43BD8BEE07D58F1CC68280935715
:10128000F541FD8BAA97370700400327070B958789
:10129000894663F3D7008947BA97B706004003A78A
:1012A000060BE36EF7FE8280511106C422C237049A
:1012B00000408347040793F7F70F93E727002308BD
:1012C000F40613054006653F8347040793F7D70FDD
:1012D0002308F406130540065D37A240124431018D
:1012E0008280370700408347070793F7E70F8A0696
:1012F000DD8E93F6F60F2308D7061377D5FF8547C3
:10130000630AF70085473395A7002205B395B70018
:10131000C98D39A0B395B700A2053395A700C98D33
:10132000C205C181B7070040239AB706B0DF8280AB
:10133000B707004003C707071377F70F9367170036
:1013400019E19377E7FF93F7F70F3707004023087A
:10135000F7068280511106C481466137B1370545D1
:10136000C13F3707004083470707C18BEDDFB70751
:101370000040E85FA24031018280111106CC22CAF0
:1013800026C8B707084003A4871021841374F40FFC
:101390009304F00F02C0B7070010FD173EC43EC60D
:1013A000B757FCFF938707683EC22DA882473307D3
:1013B000F4409357F701BA978587A2841D8C2AC4FD
:1013C00082476306F40463049404B706084083A7C5
:1013D000861041771307F70F7D8F93178400D98FFD
:1013E00023A4F61037B603001306069885450D456D
:1013F000953792473E95E34BA0FA33878440935745
:10140000F701BA97858722C03E942AC655BF324756
:101410009357F7413D8F1D8FA24793D6F741B58F64
:10142000958F63C3E700824493078006B387F40275
:10143000116713070751BA971307A005B3C7E7024F
:10144000938767F51307F00F6354F7009307F00FC6
:1014500037070840032787109306F00F63D49600E0
:101460009304F00F93C6F4FFFD86F58CA204B70633
:1014700000FF9386F60F758FD98C13C7F7FF7D8712
:10148000F98FC207DD8CB707084023A497100145E8
:101490004535193DE2405244C24471018280111128
:1014A00006CC22CA26C8B707084003D4C7101D803F
:1014B0001374F40F9307F00F3EC08144B707001078
:1014C000FD173EC43EC6B757FCFF938707683EC270
:1014D00081A0330794409357F701BA97858722C0BC
:1014E0001D8C2AC4630A940482476307F404B70678
:1014F000084083D7C610C207C18361771307F70777
:101500007D8F93177400D98FC207C1832396F6107D
:101510001306701481450D45353D92473E95E34ACB
:10152000A0FA8247338787409357F701BA97858798
:10153000A2843E942AC67DB732479357F7413D8F28
:101540001D8FA24793D6F741B58F958F63C3E700F0
:1015500026C0B706084083D7C610C207C18361778B
:101560001307F7077D8F82479E07D98FC207C18374
:101570002396F61001456D3B053BE2405244C244C0
:1015800071018280B72700202386079AB7270020A1
:1015900083C7479D9DCFB727002083C7579D91C71D
:1015A000B727002005472386E79AB72700209387AF
:1015B000C79A03C70700930617002380D700B727F1
:1015C000002083C7779D91C70907B727002023868E
:1015D000E79A8280B727002083C667A4B727002038
:1015E0009387C7A96305F50A372700428327070CAD
:1015F00093F7F7072320F70CB727002083C7A79B93
:1016000005474546638FE70A05476376F702F917F2
:1016100013F7F70F85459307000863EAE502B7273C
:1016200000209387C7A9630EF50493064002930731
:101630000008554629A8B72700209387C7A963004B
:10164000F504B727002083C647A49307000837177F
:101650000042930547000CC1420689654D8E50C17A
:101660001306C70810C5C206CD8E54C5130707055B
:1016700018C9C207CD8F93E787005CC982800546F1
:10168000C9B793064002930700081546C9B7372724
:1016900000428327070C93F7F7072320F70CB7279F
:1016A000002083C7A79B05470546E39FE7F437273C
:1016B00000428327070C93E707082320F70C0D4609
:1016C00011A8B726004203A7060C1367070823A03A
:1016D000E60C3E86B727002083C657A49307400830
:1016E000BDB7B72600209386C6A4B72700209387EE
:1016F000479F9CC2372700201307879B83473700EB
:101700008E07FD17C2070566D18FDCC2834727000D
:101710000D47638FE7020947638DE704B727002071
:10172000372700209387C79B232AF7A40146056724
:10173000372500201305C5A4B726002083C7469C83
:101740008E07B297FD17C207D98F5CC5210582802D
:10175000B72700209387879B23840700A384070073
:10176000910737270020232AF7A4154605670907A4
:10177000C1B7B72700209387879B05472384E700DD
:10178000A3840700910737270020232AF7A41546D2
:101790000567090771BF411106C622C426C2B727D3
:1017A000002003C4779C333480001A04B72700203C
:1017B00083C7A79C6398071202C081441D37130793
:1017C0008500B72600209386869BDC5213D68700BF
:1017D00083C5360293F7F70FA207CD8FB307F64004
:1017E000372600202314F6A4B72700209387C7A428
:1017F000B307F7408D87372600202308F69A83C762
:10180000C601A5C7B727002083C7579D95C73727AF
:1018100000201307879B9307E7011CC58347D70167
:10182000FD17C20703471701458FD98FC18F056781
:10183000D98F5CC513070501B7270020938787A4BC
:101840001CC3B72600209386869B83C7C601FD175D
:10185000C20703C61601458ED18FC18F0566D18F91
:101860005CC383C7F601C1E72107B7260020938632
:10187000869B03C6360283C74602A207D18F37264E
:1018800000200326469BB2971CC3B727002083D7AE
:1018900087A48E07FD17C20703C61601D18CDD8C05
:1018A000458C82475D8C85675D8C40C3B7270020DF
:1018B0009387C7A4B307F7408D8737260020A30777
:1018C000F69A83C72600F91793F7F70F854663F555
:1018D000F6045C4393E787005CC3B2402244924421
:1018E00041018280C1473EC093040002C1BDB726BA
:1018F00000209386869B938706021CC783C7F60148
:10190000FD17C20783C61601C58ED58FC18F8566A8
:10191000D58F5CC7410791BFB72700209387879B6E
:101920009386970014C783C71701B7160200D58F97
:101930005CC7210779BF93171500058513775505F7
:1019400013F5A70A598D93172500098513753503DB
:1019500093F7C70C5D8D9317450011815D8D13754D
:10196000F50F8280AA8711E1854793F7F70F372794
:1019700000208346A79B05476371D7041397270070
:101980003E9746079566A106558FB706002023AE01
:10199000E6280547637BA7029386F70F37170042B7
:1019A0002318D706370700428546A307D70C41679F
:1019B000BA97370700427CCF8280139727003E9763
:1019C00042079566A106558FC9B7371700422318FD
:1019D000070637070042A307070CD1BF511106C401
:1019E00022C226C0372400201304849B034724000E
:1019F000B73700109387C763BA9703C507009D37B1
:101A0000484097F0FF0FE78080CF83473401B70449
:101A10000042DCCC5C489CD01C4CDCD08347C40129
:101A2000238AF40437250020130545AB6536372596
:101A300000201305C5A9793E83470401239AF400C9
:101A400083550400370500201305054497F0FF0F68
:101A5000E780A02A83550400370500201305053BC5
:101A600097F0FF0FE7806029B70700209387871260
:101A700003D74700B7061E00558FD8C3370700208D
:101A8000B72700209387C7A42324F71C370700201B
:101A9000B7270020938747A02320F716BC4CA183CB
:101AA000858B03474400058B930650056389E70443
:101AB000B727002083C7A79BF91793F7F70F0547B0
:101AC0006372F704B727002003C7B79B19CBB7276A
:101AD00000209387479F3E972380D7008507E39D8B
:101AE000E7FEB72700209387879B0547A387E70278
:101AF00023880702A2401244824431018280930667
:101B0000A00A7DB79306C00375BFB727002093874F
:101B100047A023A00700420513650509C8C3116744
:101B2000D8C7138507018280311106C822C626C492
:101B3000B727002003C4779C333480001A04B727EA
:101B4000002083C7A79CF5E702C202C0B72400208B
:101B50009384849BC8442181420541817D37B72706
:101B60000020938747A0B307F5408D8737270020D3
:101B70002307F79A83C7C401FDC7B727002083C78F
:101B8000579D85C7372700201307879B9307E701D9
:101B90001CC18347D701FD17C20703471701D98F1F
:101BA000C18F0247D98F5CC12105B72700209387D9
:101BB000879B1387570218C18244A686228603C7D3
:101BC000C7017D17420783C51701C58D4D8F418F12
:101BD0001367071058C183C7F701B5E32105B7277D
:101BE000002083A7479B1CC1372700201307879B32
:101BF000834717019245CD8F185321834207D98F10
:101C0000D18FD58F93E707205CC1B727002093873A
:101C100047A0B307F5408D8737270020A306F79A22
:101C20005C4193E787005CC1C2403244A244510149
:101C30008280C1473EC2930700023EC001BF3727E2
:101C400000201307879B930707021CC58347F701F2
:101C5000FD17C20703471701D98F5D8C82475D8C42
:101C600040C54105ADBFB727002083A7479B1CC1D6
:101C7000372700201307879B5C53A183C207C183CA
:101C80008E07FD17C20703471701D98F5D8C924756
:101C90005D8C82475D8C40C18DBF511106C4AA8501
:101CA000B7270020938747A409472380E700A38034
:101CB000E7002381E700A381E7001306B00337257F
:101CC00000201305859BEF10E0176D38A24031010D
:101CD0008280511106C4B70600420566930716704C
:101CE0002390F6108D472380F606B70780E0D8438F
:101CF00055839377F70021471D8FB71580E083C781
:101D0000B50413F5F70F9307F00FB397E70093C7E8
:101D1000F7FFE98F11453317E500D98F93F7F70FD8
:101D2000A385F50483C7950493F7F70F93E717008E
:101D3000A384F5041307F00223A6E60CFD7793872E
:101D400007702394F600B7170042130616A090DB25
:101D50002387A60C1307C0022390E710C122A240DC
:101D600031018280311106C822C626C42AC02EC283
:101D700015448144B706004083A746184177F98F80
:101D80001247D98F23A2F618024597F0FF0FE7807C
:101D9000000BAA947D1479FC154533D5A402C240EA
:101DA0003244A24451018280B7270020838757AF75
:101DB0003E95A5576353F5002555B54763D3A70056
:101DC00035459307750193F7F70F372700208346B2
:101DD000E7AE9385960193F5F50F130710020146C0
:101DE000637DF7001387E7FD131617003707002000
:101DF00013074752329703560700131756001377FD
:101E000007801376F603598E138716002E07BE0639
:101E1000CD8ED98E3387C60093961700B707002062
:101E20009387874DB69783D70700B726004283A5CF
:101E3000C60813F6F7033705FCFF1305057CE98D8B
:101E40004D8E960793F70780D18F23A6F6089C4600
:101E50003706F8FF1306067CF18FD98F9CC6B707AB
:101E60000020938707449356B700BD8ACE06CC5B0B
:101E7000370601FF7D16F18DCD8ED4DB9356F7002A
:101E8000858ADE06CC5FF18DCD8ED4DFB7060700E4
:101E9000758FF443758E518FF8C3014582805111BF
:101EA00006C47D2BB707084003A707111367770007
:101EB00023A8E710256713072764B8D3196713070A
:101EC000B7BA23A6E710370729217D1798C703A7BC
:101ED0000711B78603FF9386F67F758FB746D0004C
:101EE000558F23A8E710A2403101828005051947CC
:101EF000B347E5029387870CD2073365E50237B70E
:101F000002001307A7AA3305E502C98F85833707A7
:101F10000080D98F371700425CD382801301C1FC47
:101F200006D822D626D497F0FF0FE780C02B37269D
:101F300000201306C6AE0347260037050020130510
:101F4000053A5441B70701FFFD17FD8E9305970130
:101F500093F5F50FC205CD8E54C1B70500209385CA
:101F60008538D441FD8E034556004205C98ED4C143
:101F7000B7040020138404447444FD8E8345660036
:101F8000C205CD8E74C4130317009376F30F4C581B
:101F9000FD8D138516004E05C98D4CD8485C7D8D8E
:101FA00093927601B705FF00B3F2B2003365550096
:101FB00048DC68407D8D8582C206C98E74C0B70634
:101FC00000209386063BC85A7D8D4E03336565001D
:101FD000C8DAC85E7D8D131377013373B3003365A0
:101FE0006500C8DEE8427D8D135317004203336558
:101FF0006500E8C279171377F70FB70600209386BC
:102000008636C8467D8D131377013373B30033656D
:102010006500C8C6C84A7D8D05834207498FD8CA66
:1020200003473600B706002093868634D0427D8E63
:1020300013157701E98DD18DCCC2D046F18F058380
:1020400042075D8FD8C6EF00B00985679387774058
:102050002312F102930710022303F102B727004273
:1020600013076060D8CBB706004083A746180177F6
:10207000F98F416713070720D98F23A2F618B7B746
:102080006086938787531CC01385044497F0FF0F25
:10209000E780E0E402C002C202D002CE02CC02CA53
:1020A000B7270020938787AD3EC819A8D247850778
:1020B0003ECA8947124763CBE714524763CEE718FD
:1020C0003C108245AE9703C5C7FF0D35372400424B
:1020D000232C040085471CCC0D4718CC1CCC1305C1
:1020E000800C97E0FF0FE780405A5C4C37C7020036
:1020F000D98F5CCCA56793872780232AF40C5C4C8E
:10210000B9838D8B056713070780B314F700139706
:10211000040141839305C0193AC43A85A1312AC606
:102120009305402622453D395C4C01777D17F98F98
:102130005CCCA56793879781232AF40CB2471D8D49
:10214000931715003E950A0513975400058F0A074B
:1021500026973357A702824593F7F50F93961700FA
:10216000BE964244A2962946B377C70293B757005A
:1021700093C717003357C7023E972381E600130722
:10218000A00F3387E4023357A702B377C70293B790
:10219000570093C717003357C7023E972380E600C6
:1021A0009307401FB387F402B3D7A70233F7C702E0
:1021B0001337570013471700B3D7C702BA97A38046
:1021C000F60093971500AE97A29703C707009307F1
:1021D00007FC93F7F70F9306F003E3E9F6ECE24709
:1021E000BA973ECC024793171700BA974247BA975F
:1021F00003C71700F24636973ACE83C72700025727
:10220000BA973ED0924785073EC265B58947524787
:1022100063C4E704024693171600B2974247BA9781
:102220000D47E246B3D6E6022380D700F246B3D686
:10223000E602A380D700825633D7E6022381E70067
:10224000930716003E873EC0894763CDE70402C26C
:1022500002D002CE02CCADB5B7270020938787AD60
:10226000130720062380E700130700FCA380E70084
:102270001307F0022381E7009306E005A381D7004E
:102280009306E0FB2382D700A382E7001307B00583
:102290002383E700130780FBA383E7001307D00223
:1022A0002384E700370500201305853897F0FF0FDA
:1022B000E780E0C237070040832747188176F58F13
:1022C00093E707202322F718B72700421D47D8CBF2
:1022D00097F0FF0FE780C0BB294597E0FF0FE7802D
:1022E000C03AB7070440F857B7270020238AE7AE63
:1022F0005D2897F0FF0FE78060FA01457534C25002
:102300003254A254130141038280511106C422C2E7
:1023100026C0370400408347040793F7E70F2308DC
:10232000F4068567A107231AF406A9473CDC3C584C
:1023300093E727003CD81305400697E0FF0FE7809E
:10234000C0343C58F59B3CD81305400697E0FF0F7E
:10235000E780A0333C5893E717003CD8370700408C
:1023600083470707C18BEDDF37040040645C3C58AE
:10237000F99B3CD83C5893E727003CD8130540060E
:1023800097E0FF0FE78060303C58F59B3CD8130581
:10239000400697E0FF0FE780402F2685A2401244B9
:1023A000824431018280B727004203A7870E799BC0
:1023B00023A4E70E3707044023200700D843799B66
:1023C000D8C3828009C69D4763D3A70041152E95C7
:1023D0006346C5003D066353C5002A864106135572
:1023E000F64171812A963D8A3305A64082804111CB
:1023F00006C622C426C22AC03724004244405C4498
:1024000093E707105CC45C4093E7C7015CC05C4085
:1024100093E707205CC01C4493F7F78793E70728EE
:102420001CC4E5355C4493F7F7EF5CC444C037B790
:10243000030013070798B367A7029356F501AA96FE
:102440008586B3A7D70093C717003345A7023E95EB
:1024500082473385A740B2402244924441018280A2
:10246000311106C822C626C4130500144937B747E0
:10247000801F83A6C7F5A982B7072000FD17FD8E30
:10248000638CF612B727002083C73799BD8B1D4791
:102490006371F712C117E207E18737270020A30B0A
:1024A000F7AEB72500209385C5AE0387B5009377B7
:1024B000F70F138657001376F60F13035700A38107
:1024C00065001303000F81456369C300B2853D4376
:1024D0006373C300BD4593F5F50F3726002023072E
:1024E000B6AE1306370006061376F60F1303000F79
:1024F00081456369C300B2857D436373C300FD45B5
:1025000093F5F50F372600201306C6AE2302B6005A
:10251000860793F7F70F93857700A302B60093051C
:10252000C70086052303B6009507A303F600B70787
:102530002000FD17638EF60AB727002083A70799AE
:10254000D183BD8B1D476372F70AC117E207E1878C
:1025500037270020230BF7AE372400201304C4AE26
:102560000307A400B7270020938747963EC2844301
:1025700001463AC0BA8513F5F400A9352300A4003A
:1025800013D50401615682453D892D3DA300A40069
:102590008D47A304F4009247D05B52065182B737AF
:1025A0000010938787649385C70001450D47054355
:1025B00049A0E207E187D5B561463347C502935587
:1025C000F541B3C7A5008D8FB3E7C702AD450146FE
:1025D00063D6F5001356F54113661600B307C7001E
:1025E00037270020A30BF7AE6DBDE207E1878DB75B
:1025F000931727001D8F0E073A9599463347D5024A
:102600001356F541B347A600918FB3E7D7020946A9
:1026100081466356F6009356F54193E61600B307DC
:10262000D70037270020230BF7AE3DB78907638B10
:10263000B70083D60700E34BD6FE7D17620761879C
:102640001A85EDB709C5B7270020A38AE7AEEFE0EA
:10265000DFD2EFE0DFE4C2403244A2445101828085
:102660006111B7070040054723A2E716B7070042EC
:1026700083A747103EC237060042CD468327461047
:102680001247998FE3FCF6FEB70700400D4723A2DF
:10269000E716B707004283A747103EC0370600423F
:1026A000CD46832746100247998FE3FCF6FEB70715
:1026B0000040054723A2E716370700408327871607
:1026C0009D8BEDFF3707004023220716B70709004F
:1026D0009D072328F716210182801301C1FC06D82B
:1026E00022D626D4B707002083A2070003A3470001
:1026F0008847CC47904BD44B984FDC4F16C41AC632
:102700002AC82ECA32CC36CE3AD03ED2B7070040C5
:102710003707110023A0E716370709011D0723A873
:10272000E716D8538966558FD8D3A1473EC20144D6
:102730008144B7070020938707023EC02DA83A9432
:10274000910682476385F6029C4213D7A700137651
:10275000F73F1377072019C3130606C0B29413F787
:10276000F73F93F70720E1DF130707C0C9BF924780
:10277000FD173EC289C7ED35B7060020F1B7B70790
:102780000020B24242435245E245724682561257F9
:10279000A24323A0770023A2570023A46700C8C741
:1027A0008CCBD0CB94CFD8CF13D5F4411375F50390
:1027B0002695198542059357F44193F7F703A2979D
:1027C0009987C207C1835D8DC2503254A254130150
:1027D00041038280011106CE22CC26CA3717801011
:1027E00013070781098F931727003EC8A147898FD8
:1027F0009207371700422322F710C535935405413D
:102800001314050141849307000C3EC2930700FC9A
:102810003EC0635190029307000C3EC6930700FC34
:102820003EC4635E8000D10493B494025104133417
:102830009402B1A0930700043EC23EC0E9BF9307D3
:1028400000043EC63EC4C5B7C2469C423717F0FFDF
:102850007D177D8F9247B207D98F9CC20DEC1DA0CA
:102860009245B6952EC236C0B9A8B246B29636C6C3
:1028700032C4510793349702D10713B49702E9D4B5
:10288000631B0404C2469C427D773D077D8FB2479F
:102890009207D98F9CC291351357054193170501B3
:1028A000C1870246935616406387C602A24513D6D7
:1028B00015406302B60263980400E34307FA9245A9
:1028C000958D2EC236C055F4E3C107FAB246918EFB
:1028D00036C632C479BFF2406244D2440561828078
:1028E000511106C422C226C037070020B7B7608640
:1028F000938787532328F73A37050020130545545B
:1029000097E0FF0FE780A05DB72700200947238CE1
:10291000E7AE372700428327470CB70600F4FD16C1
:10292000F58FB7060008D58F2322F70CB7160042A3
:1029300083A7061093E7170023A0F6108327070C40
:10294000BD9B2320F70C0144A5441375F40F5935A2
:102950000504E31C94FEB72600209386C6AEB72775
:102960000042938707023726004213064604984325
:1029700011832397E60091078906E39AC7FE37275C
:1029800000428327070C93E707012320F70C371732
:10299000004283270710F99B2320F71037050020FA
:1029A0001305C55297E0FF0FE7806053A240124421
:1029B0008244310182809307500205C99307F5FFD5
:1029C00093F7F70F29476372F702B1476307F502E0
:1029D000930735FF93F7F70F6547637AF7001307FF
:1029E0007002930750026308E5003E8582807915E6
:1029F0009377F50FDDBFAA87CDBF93076002F5B7C8
:102A0000311106C822C626C42AC02EC23284B72776
:102A1000002083C787B193F7F70FD9C7B7270020E6
:102A20008544238C97B0B7270020238807B4A2865B
:102A30009377F40F86079387670237070020130404
:102A4000675D2310F40013F5F60FB537B7070020C4
:102A50009387A75D2380A70037270020A30897B49A
:102A600002458346050037270020230BD79C0356D9
:102A7000040083C6070092479385E7FF93F6F60F9D
:102A800042064182C205C181090597E0FF0FE78038
:102A900080FE1305401F97E0FF0FE78000BFC24094
:102AA0003244A2445101828097E0FF0FE780400B3F
:102AB000B5B78280130795019307500263F3E700CF
:102AC0008280511106C422C22A84EFF0EFADB727ED
:102AD000002023A687B4A240124431018280511104
:102AE00006C497E0FF0FE78020C0A240310182803A
:102AF000130181FA86CAA2C873700430EFF06F9D8B
:102B000037270020B7270020938747B2232AF79A58
:102B1000372400201304849BB727002023A087B20A
:102B20001306A00481450A85152E9307C0032310C0
:102B3000F1008547A301F10037C7898E130767EDC0
:102B40003AC211472306E10013070002A306E10081
:102B50001307E0042307E100A307F1001307500265
:102B60002308E1002309F1008D47A309F100B757BD
:102B70005500938757553ECAB70700019387B7653D
:102B80003ECCA147230EF100A30EF10093072004D1
:102B9000230FF10093077002A302F1020A85EFF000
:102BA000CF8F0145EFF04FA0EFE05FE3EFE0BFBE56
:102BB000EFE09FF7B70708401307A00798C3054544
:102BC00097E0FF0FE78060F7054597E0FF0FE7808C
:102BD00060F473600430A30F0402B7270020238C35
:102BE00007B0B7270020238807B4B7270020A388A1
:102BF00007B4B7270020238907B4D6404644130101
:102C000081058280B70600209386065E014715463F
:102C10001D43A14235A87C5D858B91C77C5D858B6A
:102C2000FDDB7C5DCDBF5C4593E707085CC583C7D2
:102C300006008A07AA9783A3050023A0770005074B
:102C40008506910531A005078506910563035702A6
:102C5000E303C7FC83C706008A07AA9783A305007E
:102C600023A07700E31167FE5C4593F7F7F75CC597
:102C700082808280130141F986D4A2D2A6D0B727E0
:102C8000002005472388E7B0B70700202947238A9B
:102C9000E75CB70700207D57A38AE75CB7270020D1
:102CA000A38807B037270020B726002019A883473C
:102CB00017B593F7F70F8DE383C706B593F7F70FB3
:102CC000C9E3834717B593F7F70FF5F383C706B545
:102CD00093F7F70FE9FF39A01305001997E0FF0FED
:102CE000E780A09A97E0FF0FE78080E773700430D9
:102CF0001810B727002023AAE7B4B7270020B7365B
:102D0000030023A0D7B6B727002023AE27B4B737D8
:102D10000010138447659304040493874765944324
:102D2000944214C391071107E39B97FE37060020D6
:102D30001306065E8A8585461945371700411D43EF
:102D400081A01305800C613B1305001997E0FF0F6C
:102D5000E780A09341BF7C5F858B91C77C5F858BAB
:102D6000FDDB7C5FCDBF5C4793E707085CC783470B
:102D700006008A07BA979C439CC185060506910503
:102D8000E38BA6FC834706008A07BA979C439CC145
:102D9000E375D3FEB70708401307F03F2392E70817
:102DA0003707000198CF97E0FF0FE780A07173709D
:102DB0000430B727002083A5C7B5371500419935E2
:102DC000B727002083A747B59443184014C31104C4
:102DD0009107E31B94FE3707084083570708C20793
:102DE000C183B726002023ACF6B49307F03F23122B
:102DF000F7087360043097E0FF0FE78060D6014763
:102E0000B70580E0054693060003930707408A074D
:102E1000AE972381C7000507E319D7FEB727002027
:102E2000238807B4B7270020A38807B47360043051
:102E3000B7070840C84FA650165486541301C10660
:102E4000828000002A8309CA83C30500230073001F
:102E50007D16050385056DFA828000002A8311C660
:102E60002300B3007D16050365FE8280000000008C
:102E70002000000030313233343536373839616262
:102E80006364656600000000303132333435363714
:102E90003839414243444546000000004552524FF4
:102EA000520000005B4144565D20E5B9BFE692AD9B
:102EB000E58F91E98081E5889DE5A78BE58C96E516
:102EC000AE8CE68890EFBC88E4B8BBE5BEAAE78E7E
:102ED000AFE6A8A1E5BC8FEFBC890A00E5889DE5B7
:102EE000A78BE58C96E5AE8CE688900052656D6FF9
:102EF000746572204750494F20696E697469616C2E
:102F0000697A65640A0000005B424C455D205061AF
:102F1000636B657420696E697469616C697A656454
:102F20002C2047524F55505F414444523D30782544
:102F30003038580A000000004B65792070726F63CA
:102F400065737320696E69740A0000004B4559531C
:102F50005F46554E4354494F4E5F4E554D203D20E0
:102F6000256420286175746F2D63616C63756C61D5
:102F7000746564290A00000052656D6F74657220E3
:102F8000696E697469616C697A6564202856494F75
:102F900054206D6F6465290A000000005B414456AF
:102FA0005D20E695B0E68DAEE58C85E58F91E980F4
:102FB00081E5AE8CE688900A000000004E6F206D1F
:102FC00061746368696E67206B657920666F756EE2
:102FD0006420666F72203078253038580A0000006F
:102FE0000A3D3D3D20E697A7E6A0BCE5BC8FE7BCC7
:102FF00096E7A081E5908EE695B0E68DAE203D3D4A
:103000003D0A0000E68890E58A9F0000E7BC96E74D
:10301000A081E7BB93E69E9C3A2025732028726529
:10302000743D307825303258290A0000434D443A27
:10303000203078253032582C20506172613A205B64
:103040003078253034582C203078253034582C20D6
:103050003078253034585D0A00000000E7BC96E760
:10306000A081E695B0E68DAEE995BFE5BAA63A2017
:103070002564E5AD97E88A820A000000E7BC96E780
:10308000A081E695B0E68DAE3A200000253032589A
:10309000200000000A2020202020202020202020A6
:1030A000000000000A000000E5B9BFE692AD4D4106
:1030B00043E59CB0E59D803A200000002530325861
:1030C000000000003A000000526561647920746FCE
:1030D00020736C65657020286E6F20616374696F62
:1030E0006E20666F72203573290A0000456E746584
:1030F0007220736C656570206D6F64650A00000056
:103100000A3D3D3D2057616B6575702066726F6D9D
:1031100020736C656570203D3D3D0A0057616B650D
:10312000757020494F3A20307825780A0000000059
:103130003D3D3D2053797374656D20726573756DE7
:103140006564203D3D3D0A0A00000000EC020010CD
:1031500002030010EE030010EE030010EE03001057
:10316000EE030010EE030010EE030010EE0300105B
:10317000E8020010EE030010EE030010EE03001052
:1031800062030010EE030010EE030010160300109F
:10319000EE03001058030010EE030010EE030010C1
:1031A00062030010EE03001002030010080000008C
:1031B00000000000070000000F00000006000000F3
:1031C00001000000150000001400000013000000C2
:1031D0001200000000006000B400001011000000A8
:1031E00000000000B400001011000000000000000A
:1031F000B4000010110000000000000000005000AA
:10320000B40000101200000000000000B400001024
:103210001200000000000000B400001012000000C6
:103220000000000000004800B4000010130000007F
:1032300000000000B40000101300000000000000B7
:10324000B400001013000000000000000000440063
:10325000B40000101400000000000000B4000010D2
:103260001400000000000000B40000101400000072
:103270000000000000802000B400001021000000C9
:1032800000000000B4000010210000000000000059
:10329000B4000010210000000000000000801000B9
:1032A000B40000102200000000000000B400001074
:1032B0002200000000000000B40000102200000006
:1032C0000000000001000800B4000010230000000E
:1032D00000000000B4000010230000000000000007
:1032E000B4000010230000000000000001000400F2
:1032F000B40000102400000000000000B400001022
:103300002400000000000000B400001024000000B1
:103310000000000002002000B40000103100000096
:1033200000000000B40000103100000000000000A8
:10333000B400001031000000000000000200100086
:10334000B40000103200000000000000B4000010C3
:103350003200000000000000B40000103200000045
:103360000000000002000800B4000010330000005C
:1033700000000000B4000010330000000000000056
:10338000B400001033000000000000000200040040
:10339000B40000103400000000000000B400001071
:1033A0003400000000000000B400001034000000F1
:1033B0000000000000012000B400001041000000E7
:1033C00000000000B40000104100000000000000F8
:1033D000B4000010410000000000000000011000D7
:1033E000B40000104200000000000000B400001013
:1033F0004200000000000000B40000104200000085
:103400000000000000010800B400001043000000AC
:1034100000000000B40000104300000000000000A5
:10342000B400001043000000000000000001040090
:10343000B40000104400000000000000B4000010C0
:103440004400000000000000B40000104400000030
:103450000000000080002000B400001051000000B7
:1034600000000000B4000010510000000000000047
:10347000B4000010510000000000000080001000A7
:10348000B40000105200000000000000B400001062
:103490005200000000000000B400001052000000C4
:1034A0000000000080000800B4000010530000007D
:1034B00000000000B40000105300000000000000F5
:1034C000B400001053000000000000008000040061
:1034D000B40000105400000000000000B400001010
:1034E0005400000000000000B40000105400000070
:1034F0000000000040002000B40000106100000047
:1035000000000000B4000010610000000000000096
:10351000B400001061000000000000004000100036
:10352000B40000106200000000000000B4000010B1
:103530006200000000000000B40000106200000003
:103540000000000040000800B4000010630000000C
:1035500000000000B4000010630000000000000044
:10356000B4000010630000000000000040000400F0
:10357000B40000106400000000000000B40000105F
:103580006400000000000000B400001064000000AF
:103590000000000001002000B40000100100000045
:1035A00000000000B4000010010000000000000056
:1035B000B400001001000000000000000100100035
:1035C000B40000100200000000000000B400001071
:1035D0000200000000000000B40000100200000023
:1035E0000000000000800800B4000010030000008C
:1035F00000000000B4000010030000000000000004
:10360000B40000100300000000000000008004006F
:10361000B40000100400000000000000B40000101E
:103620000400000000000000B400001004000000CE
:103630000000000011223344556600000101010121
:10364000020408142864FA0009036803D203490439
:10365000CF04660500020140040201400802014057
:103660000C0201401002014014020140000301401D
:1036700004030140100001403000014040000140BF
:10368000700101408001014090010140A001014012
:0436900040010140B4
:0C369400A83600100000002030060000E6
:0836A000C0180020A900000081
:1036A800000000000000000000000000820C001074
:1036B800000000000000000000000000820C001064
:1036C800000000000000000000000000820C001054
:1036D80000000000000000000000000000000000E2
:1036E800820C0010820C0010EC050020820C0010E7
:1036F800820C0010820C0010820C0010820C00104A
:10370800820C0010820C0010820C0010820C001039
:10371800820C0010820C0010820C0010820C001029
:10372800820C0010820C0010820C0010820C001019
:10373800820C0010820C0010820C0010820C001009
:10374800820C0010820C0010820C0010820C0010F9
:10375800820C0010820C0010820C0010820C0010E9
:1037680001000000C0190020000000000050010006
:10377800B119002000200100B00300200060000003
:103788002801002000600000B1190020002000007E
:103798003001002008600000000000000050010017
:1037A800B119002000200100400400200060000042
:1037B8002801002000600000B1190020002000004E
:1037C80090010020086000000000000008501E0062
:1037D800380200200060000068030020006000003C
:1037E80010020020006000009C1A00200060000009
:1037F800480200200060000028020020006000004D
:1038080000000000006000002002002000600000AE
:103818004002002000600000B119002000200100D3
:103828004803002000600000B119002008200000B3
:103838003802002000600000A003002000600000A3
:10384800B41A002000600000600200200060000040
:10385800700200200060000090020020006000005C
:10386800A8020020006000000000000000600000C6
:10387800B11900200020010098020020006000001B
:103888006802002000600000300200200060000094
:1038980050020020006000002002002000600000AC
:1038A8008803002000600000B119002008200000F3
:1038B80000000000085001000000000000000000A7
:1038C80000100042082000000010004208200C00F0
:1038D80000100042082001000000004208200600F5
:1038E80084000042082000008400004208200100F3
:1038F8001520004240300002840000424830000297
:103908008400004248300202152000424830000579
:10391800152000424830010100100042002000003C
:1039280000000042002006000000000008500100CE
:10393800CC1A0020081007000000000008500500FD
:1039480001000000152B0B000010004200200300AE
:10395800000000008050020027100042483000801C
:103968000C2000428020FF000000000000500A00E8
:1039780004200042403000040C2000424030000186
:103988001820004240300001182000424030010158
:103998001820004240300002182000424030020245
:1039A8001820004240300002780200200860000021
:1039B8001820004240300001002000424030000141
:1039C8000C2000428020000004200042403000010A
:1039D800042000424030000204200042403000FC35
:1039E8000520004248300001082000424030808015
:1039F80009200042403002071020004280200000C9
:103A08001003002008600000D220004240300F0F51
:103A180008200042403080800920004240300107E1
:103A2800102000428820FF01050108404030051F92
:103A3800082000424030003F1003002008600000CA
:103A48000820004240301E3FD22000424830030F79
:103A58000000000020202410DC200042403080C0FC
:103A6800DD20004240300107DC20004240303C3C71
:103A7800E420004240300C1CDE20004240300404A8
:103A88000920004240302078092000424030008060
:103A98000A20004240300207DD2000424030000882
:103AA800E220004240300080E32000424030000322
:103AB8000020004240300101042000424030010152
:103AC800042000424030FCFC052000424030010147
:103AD8001C20004240300010C00200200860000096
:103AE8000000000020202410DC200042403000C0EC
:103AF800DD20004240300007DC20004240303C3CE2
:103B0800E42000424030081CDE200042403004041B
:103B1800092000424030307809200042403080803F
:103B28000A20004240300207050108404030101FBB
:103B3800DD20004240300808E2200042403080800A
:103B4800E3200042403003030020004240300101DE
:103B5800042000428020FF03152000424030060662
:103B68001C20004240301010271000424030808056
:103B7800C0020020086000000E101A101D10291045
:103B88002B102D1039103A103B103D104D18881885
:103B980089188A188B188C188D18CA18CB18CC1845
:103BA800CE180C190D194C194D198D19CD190D1A5E
:103BB8004D1A8D1ACD1A4D1BCD1BCD1C4D1ECE1F77
:103BC800CE1F0000800082008A00700020020020C2
:103BD8000060000040020020006000004803002050
:103BE80008600000B0030020006000000000000032
:103BF80000503200380200200060000068030020F6
:103C0800006000000410004200200100480200206B
:103C18000060000028020020086000000401004045
:103C2800000080E0481080E0080000421C000042CC
:103C3800240000426000004200010042800000426F
:103C480020000042240000420C00004230100042D4
:103C5800001100424C11004208200042A8200042F6
:103C68008C20004220000040240000402800004032
:103C78002C000040FFFF260027002500F902000065
:103C8800033302040100013005458280130181FDE0
:103C980006D216D01ACE1ECC2ACA2EC832C636C4B0
:103CA8003AC23EC0D922925082527243E2435245F0
:103CB800C2453246A2461247824713018102730069
:103CC8002030711122C037030140032703039347B3
:103CD800F5FFF98F2328F3021303032091423704D9
:103CE80001401304842125A005812207A206850727
:103CF800638A570093751500E5D99345F7FF6D8ED4
:103D0800558EDDB723A0C3001103630B83009A838C
:103D1800032603009306000A1307F00F8147D9BF53
:103D28000244110182807111B707004283A747102E
:103D38003EC0B706004283A746100247998FE3ECBE
:103D4800A7FE11018280711106C09307803E3305DA
:103D5800F502D13F824011018280939735003E954C
:103D6800637CB600828093E707045CC12105850562
:103D780093F5F50FE368B6FE5C4193F7F7FBE5F6BC
:103D88005CC1EDB7B7270020938747A023A00700A1
:103D9800420513650509C8C38280311106C822C6C9
:103DA80026C4B727002023AEA79AB7070042BC4F06
:103DB800A183858BD1C70144B7040020B727002011
:103DC8009387879B3EC283A7440CA2973EC01247A5
:103DD800B307870003C54700971000F0E780E01F8E
:103DE80082472380A70005049147E31EF4FCB70728
:103DF800002083A7470C9843B707004223A0E70891
:103E0800B727002083C7C79B858BB307F04093F77C
:103E1800B7FA9387A70AB72600209386469F93F799
:103E2800F70F13978700BA9713970701BA979CC2A1
:103E3800DCC29CC6DCC6C2403244A2445101828026
:103E4800B707004223A0A70865BFB7070042C85FAD
:103E58008280B7070042A8438280B7070042C84360
:103E680009898280828082808280311106C822C6B8
:103E780026C4B707004205472382E706C0439317C5
:103E88000401C1833EC293748400937744003EC00A
:103E9800B707002083C7070C93F7F70FE1C3B727CD
:103EA800002083C7279B93F7F70FCDEB639A040491
:103EB800B727002023A807A8371700428347071E03
:103EC80093F7F70F37260020232AF6A88347C71E43
:103ED80093F7F70FB726002023ACF6A823000700B6
:103EE800B707004223820708B727002083C7C7A85F
:103EF80005476398E70AB7270020238607A8F1A893
:103F0800A537B727002005472389E79A9247898B69
:103F180063810710B727002023A807A83717004296
:103F28008347071E93F7F70F37260020232AF6A8A2
:103F38008347C71E93F7F70FB726002023ACF6A8D0
:103F480023000700B707004223820708B72700208D
:103F580083C7C7A805476396E704ADA0B727002025
:103F680023A807A8371700428347071E93F7F70FC0
:103F780037260020232AF6A88347C71E93F7F70F92
:103F8800B726002023ACF6A823000700B707004295
:103F980023820708B727002083C7C7A8054763827D
:103FA800E7020947638CE7060D476387E708B727E9
:103FB800002083C7A79CDDC7638E040A8247DDEB18
:103FC8005DA095D8B7270020238607A8B72700202B
:103FD8009387879B05472388E702B72700209387A5
:103FE800879BA3870702B707002083C7070C93F7AF
:103FF800F70FA1CBB70700202380070C13758400A7
:10400800EF007014054581C482473335F000EF0096
:104018009056C2403244A24451018280B727002002
:1040280083C7A79C95C363840400824799CFB727A9
:104038000020238607A855B7B7270020238607A89E
:1040480069BFEF001052F1B7FDD0B72700200D4728
:104058002386E7A8B72700209387879B05472388EF
:10406800E70251B781C8B72700209387879B054788
:104078002388E702B727002083C7C7A8ADF7B1BFD9
:10408800511106C422C226C0AE8705443727002036
:104098001307879BA3078702370700202300870C95
:1040A800372700202309079A372700200347C79A94
:1040B80009071377F70F93153700372700201307E1
:1040C80047A02E9708C38E07FD17C20783554700E0
:1040D800CD8F5CC3C206C182B7040042239AD400C4
:1040E800B285370500201305053B752437270020C6
:1040F800B7070020938787162328F7A8B70700205B
:104108009387870CDCC480C0A240124482443101EA
:104118008280511106C422C226C0368485443727BE
:1041280000201307879BA307970237070020230067
:10413800070C372700200347C79A09071377F70F9B
:10414800B72600202394B6A49316370037270020FB
:104158001307C7A4369708C393973500FD17C207FE
:1041680083564700D58F5CC3B285370500201305F9
:104178000544152437270020B70700209387871D9B
:104188002328F7A842044180B7070042239A8700F2
:10419800370700201307870FD8C77374043084C308
:1041A800192173100430A2401244824431018280E4
:1041B800511106C4AA86B727002003C6F79AB72765
:1041C800002083C5079B372500201305C5A4713639
:1041D800A24031018280511106C4AA86B727002067
:1041E80003C6D79AB727002083C5E79A372500204A
:1041F800130545A09D36A2403101828073700430BA
:10420800372700209307179B83C7070093F7F70FFB
:10421800F5FBB7070042094798C305472382E7061D
:10422800B727002003A507A90DC5511106C4B1265B
:10423800B727002023A807A873600430B7270020F9
:104248009387879BA387070223880702A24031012F
:10425800828073600430B72700209387879BA387E9
:104268000702238807028280411106C622C426C29B
:10427800AA8413D7B50093074006B307F70299E35A
:104288009307803E93F5F57F3385F5020D67130795
:1042980007EE3344E5021304540C420441803347CB
:1042A800F702B3E5E502B385F502D567938757555D
:1042B800B385F5029307803EB3C7F5023EC0B70742
:1042C80000209387073B638CF404B727002003C7BB
:1042D800A79B9307007D3345F5029307E7FF93F704
:1042E800F70F8546814563F9F600BA85894763F378
:1042F800E700894593F5F50F1375F50F612E814693
:104308000147931744010246D18F998F8583D58F32
:104318009CC02685B2402244924441018280B7273E
:10432800002003C7A79B8547630FF702B726004203
:1043380083A7C60C3707D0FF1307F7CFF98F3707C6
:10434800300013070730D98F23A6F60CB7270020B3
:1043580003C7A79B85476309F702B706008055671F
:104368001307575579BFB726004283A7C60C3707EE
:10437800D0FF1307F7CFF98F37073000130707303F
:10438800D98F23A6F60CD9B7B706008037B7020035
:104398001307B7AABDB7511106C40146F135A240AB
:1043A80031018280B727002083C797AE93F7F70FB4
:1043B800C5C7B727002083C787AE99EFB727002066
:1043C8009387C7AE03C757000907A382E700B7273B
:1043D800002005472384E7AEB7270042B857419B22
:1043E80013674700B8D7F857419B13677700F8D78A
:1043F800B85B419B13677700B8DBF85B419B136799
:104408007700F8DBB85F419B13677700B8DFF05F90
:10441800FD769386F60F758E056713070780598E0C
:10442800F0DF03A60708758E598E23A0C70803A6D8
:104438004708758E598E23A2C70803A68708F18EF0
:10444800558F23A4E70803A7870C1377F78F136703
:10445800072023A4E70C8280B7270042B857419B66
:1044680013674700B8D7F857419B13677700F8D709
:10447800B85B419B13677700B8DBF85B419B136718
:104488007700F8DBB85F419B13677700B8DFF45F0C
:104498007D771307F70FF98E93E60620F4DF83A6DE
:1044A8000708F98E93E6062023A0D70883A64708B5
:1044B800F98E93E6062023A2D70883A68708758F6E
:1044C8001367072023A4E70803A7870C1377F78F40
:1044D8001367072023A4E70C8280511106C422C267
:1044E800372400428327C40C37070010D98F2326AE
:1044F800F40C8327C40C370700F07D17F98F2326A7
:10450800F40C85471CCC95471CCC93070003335506
:10451800F502150542054181EFF0FF800325040FE0
:104528002E052D81A240124431018280511106C40A
:1045380022C2B7270042D84313671700D8C33704ED
:104548000440094718C003A7870E1367170023A460
:10455800E70E930780085CC0916789073CD09307F2
:10456800F0303CD81145EFF00FFCB74700808907C1
:104578003CD0A240124431018280B7070042238018
:104588000706C8C7054798C3370700428347470649
:1045980093F7F70FE5DFB707004205472382E706E1
:1045A8002380E7068280B727002083A707AD99CB31
:1045B800370700400327070B1D8FB7870200ED1749
:1045C80063F9E70C011106CE22CC26CAB7070840CA
:1045D800D4473704044018403AC0504032C22C50E7
:1045E8002EC4D84713678700D8C728582AC6370665
:1045F80000400C5638581367170038D8B7240042C3
:104608001307F03FD8C021672EC84D8F18D6D4C7DE
:10461800313F2145EFF02FF17C5437270020034725
:1046280047AF998F910713D73740B727002083A743
:104638000799BD83FD8BB387E70295072947B3C761
:10464800E702372700202322F7AEB706004003A76A
:10465800060BB727002023A8E7AC83A7840EF99B95
:1046680023A4F40E2320040623280406DC40F99B27
:10467800DCC0024718C0124650C0A2473CD03245A1
:1046880028D8C2458CD67C54F2406244D244056195
:104698008280828071118567938747802310F1009B
:1046A80089472301F1002E835C00AE970386C7FF7C
:1046B800C94763E2A706A14763E7A70013171600D7
:1046C8001316870161868547638DF5108145939799
:1046D8001500AE97B7250020938585ADBE959A95B0
:1046E80003C70500B727002083A647AEBA96B715BB
:1046F80000428851C1777D8D370700201307472A6C
:104708001A9783470700A2073307D600D98FC98FA6
:104718009CD1110182809307A00363F5A702930738
:10472800400463F7A7001317160013168701618664
:104738003307C04013168701618685476389F504EE
:10474800894571B79307D5FE93F7F70F3547637B14
:10475800F70069476364F70A0547638FE500014678
:104768008545B5B705476385E5000146814585B7A9
:1047780011476375F70681451305F5FD1375F50FA8
:104788000D4701466370A70631A08945F5B7930721
:1047980080028945138757FE1377F70F8D4663F319
:1047A800E604138767FF1377F70F8D4663FCE6006F
:1047B800138797FE1377F70F63F6E60013073002A7
:1047C800E377F7F093971500AE97B7250020938508
:1047D80085ADBE9503C71500791729B701468145F0
:1047E80011A0814593971500AE97B72500209385B2
:1047F80085ADBE9503C715000907EDB50547E386E6
:10480800E5F801468945E1B5511106C49D24A24049
:1048180031018280B727002083C747AD6386A70090
:10482800B7270020238AA7AC8280B72700207D57AE
:10483800238AE7AC372600201306C6AEB726004207
:10484800938606020147A5458357E6009207BA9763
:104858009CC2050709069106E318B7FEB726004271
:1048680083A7460C370700F47D177D8FB7270020F4
:1048780083C787AFEA07D98F23A2F60C828082808C
:104888008280511106C422C226C0372400421C442B
:1048980093F707FC1CC49D475CC85C4C71774107C3
:1048A800F98F1167130787F8D98F5CCCB7140042CA
:1048B8009C50370701FF7D17F98F37071400D98FF0
:1048C8009CD0B14723A8F4145C4093E707205CC050
:1048D800B70700400D4723A0E7308327040E93F75E
:1048E800F7E393E7070C2320F40E8327440E93F78E
:1048F800F7E193E707162322F40E8327440D056793
:1049080013070780D98F232AF40C693C8327C40A2C
:1049180093F7F7EF2326F40AB707002083C7A752B7
:1049280023ACF41011679307F7FF23A8F412A240F1
:104938001244824431018280511106C4F135F535A3
:10494800A24031018280B707002083C7072A9DCB88
:10495800630A050A3717004203270710058B05E38A
:10496800B717004203A7C71E83A6071093E61600D1
:1049780023A0D7101377F70F23A2E71082800547EB
:104988006383E7008280B717004283A6071E13F7E8
:10499800F60F83A7471E93F5F70F13F6F60793F75D
:1049A8000704CDC31377070419E31306F007B717F5
:1049B800004283A6C71E93F6F60F93D7460013F757
:1049C800F60013056007636BB5081305B006636C42
:1049D800B500A18A89EA05071377F70FB9CBFD1748
:1049E80093F7F70FB9A09306600763EFC602930623
:1049F800B00663E0C6049D4663EDF602850793F7AB
:104A0800F70F05A83717004283270710F99B2320C3
:104A1800F7108280B717004203A7C71E1377F70F56
:104A2800935747003D8B05EF63850700FD1793F704
:104A3800F70F92073E971377F70FB717004223A295
:104A4800E71082801377070471D7B717004203A7CE
:104A5800C71E1377F70F935747003D8B49D77D172C
:104A68001377F70F9D46E3E6F6FC850793F7F70FF4
:104A7800C9B7B706084003A6461037270020130712
:104A8800C7AE834747008E0783455700A205CD8FE1
:104A980083451700BA05CD8FB705FCFF6D8ED18F02
:104AA80009660906D18F23A2F61083A7061113F60B
:104AB800F78783477700F9179E07D18F23A8F61049
:104AC800372600420C46B70708809387F787FD8D85
:104AD800834627008506834737009E07034707005C
:104AE8006E07D98F13973601D98FDE06D58FCD8FF4
:104AF8001CC68280B70700402547D8C3754798D39E
:104B08001D4798D7056713072730D8D78280937732
:104B1800F50F1375F50F6378B502372700200326C4
:104B2800C7B0B70600209386C6570A0532950841D4
:104B3800139727003697184308C3850793F7F70F8D
:104B48003E85E3E4B7FE82809307803E3305F50295
:104B58001581B727002023AAA7B08280014582804B
:104B6800130181F986D2A2D0A6CE5800B72700201B
:104B780023A6E7B0B70700209387C7571386870592
:104B88009443944214C391071107E39BC7FEB707E8
:104B9800084003D7C700136707402396E700372765
:104BA80000201307478898D3B727002003A507B626
:104BB800C124B727002083C707B18DC3B7070020DA
:104BC80003C5475D9307F00F6314F504B70700208A
:104BD80003C5575D9307F00F631EF50237040840BD
:104BE8008347C40493E717002306F4047C4493F72F
:104BF800F7EF7CC483274412DD9B2322F412094576
:104C0800EFF06F9283274412ED9B2322F41235A80C
:104C180021246DBF1124D9B7F13D370408408327FB
:104C2800441079771307F70FF98F93E7076023226A
:104C3800F410C9450145E13DA931FD39484C6924C5
:104C480035E51305803EEFF00F8EB707004083A7C8
:104C5800070B37270020930447B19840BA973704C9
:104C680008405CC08327441079771307F70FF98F42
:104C78000567D98F2322F41095242304040498404F
:104C8800FD57E31BF7F8B7070840DC4FD1F702C020
:104C980002478567938777BBE3C9E7FA3E87824770
:104CA80085073EC08247E35CF7FE45B7D9454945CD
:104CB800B93DB727002083C707B1C1EB692A37047C
:104CC80008408327441293E747002322F41209453A
:104CD800EFF06F858327441293E787002322F412AD
:104CE8008347C404F99B2306F4047C4493E7071024
:104CF8007CC4B727002083C717B1B1CBB707002002
:104D080083A7C75D8297B727002083C717B1A1C3C0
:104D1800B727002083A7C7B0F847B707002083A7A5
:104D2800875C98C3B727002083C707B189C7B7072F
:104D380000402147D8C3B707084023A00702965070
:104D48000654F644130181068280D52085BFB72713
:104D5800002083C707B1CDDF1305401FEFE0BFFC7C
:104D680045BFB7270020A38807B4B7270020054709
:104D7800238CE7B08280B72700209387879BA38F77
:104D88000702B7270020238807B451E5B72700207A
:104D980083A7C7B1C9C3511106C422C2B7270020CF
:104DA80083C727B593F7F70FA1EBB72700209387A1
:104DB800C7B19843372400201304849B8346E40139
:104DC8002300D700984383465402A300D7008843A2
:104DD8009C4383C51700890593F5F50F971000F0DC
:104DE800E7806037230F0400A302040223030402B0
:104DF800A240124431018280B727002003A5C7B121
:104E0800B707002083D5875D93F5F50F971000F05D
:104E1800E7806034F1BF828037070140344385471B
:104E2800B397A70093C7F7FFF58F3CC38280B707F6
:104E3800014009671307171223A6E72023A8E720D4
:104E48001307004098DBB8C3375732FF13070741F1
:104E580023A0E7308280B7270020938747B598437F
:104E680054533707014014DB9C439C573CC3828052
:104E780037030140832603039347F5FFF58F232863
:104E8800F30213030320B7030140938383211DA07A
:104E980005812207A206FD1789CB93751500EDD968
:104EA8009345F7FF6D8E558EE5B723A0C200110319
:104EB800630B73009A820326030091479306000A46
:104EC8001307F00FD9BF828019C10545828051119F
:104ED80006C4EFE07FDBA240310182805D7106C02D
:104EE8000AC20EC412C616C81ACA1ECC22CE26D0B2
:104EF8002AD22ED432D636D83ADA3EDCF3247030B1
:104F080073255030A6C0AAC23705084013054502CC
:104F180023202500370508401305850485450CC165
:104F28007300501037050840130545020C412E81C7
:104F38008644164573907430731055308240124180
:104F4800A2413242C2425243E24372448254125551
:104F5800A2553256C2565257E2576161828000000C
:0400000510000000E7
:00000001FF
