:020000041000EA
:1000000093000000068186810682868206838683AD
:100010000684868406858685068686860687868784
:1000200017050000130505061365350073105530DC
:1000300017050010130505FD7310753017410010EA
:10004000130141FC73100134EF00206901A013007B
:100050000000130000001300000013000000130054
:100060000000130000001300000013000000130044
:100070000000130000001300000013000000010046
:100080007375043001A073002030000000000000F0
:100090000000000000000000000000000000000060
:1000A0000000000000000000000000000000000050
:1000B00000000000B7170020938787257D57A3888D
:1000C000E700035705002399E700828037070140C6
:1000D0008147130707206146B356F500858A89C614
:1000E000B386E700238006008507E397C7FEB707BE
:1000F0000140985B498F98DBB84381C5598DA8C3EF
:1001000082801345F5FF798DDDBFB71700209387F7
:1001100087259C4F81ED63EBA7003387A7400545FA
:1001200063E3E7026361E602014582809386F7FF9D
:100130003387A640B337F000B3B6E600B385B740C7
:100140000545E381D5FE82803715002013058525FE
:1001500001478147230E0500231F050018D15CD1FC
:10016000130670028145130585026F107028130174
:1001700081FA86CAA2C8A6C6EF1080671945EF109B
:10018000F003B70701400146854693870720930592
:10019000000261473395C600135325011373F30022
:1001A000630603003305F6002300B5000506E313DC
:1001B000E6FEB70601409C5A3707C4FF7D17F98F4A
:1001C00032C021659CDA85451305351C013737148B
:1001D000002013048425814513050020C53D2328F4
:1001E0000404232A0404232C0404232E0404B7F754
:1001F00003109C430246814522853CD0EF10501FDE
:10020000A137B707004203A747101C4C7450BA9798
:10021000958F9384F7FF6363D700BE8428546C5492
:1002200005661306863804CC78D0C53569CDB72667
:100230000010938646C03707014024D423260406C5
:10024000138386018147854241079042085B3396BC
:10025000C2009345F6FFE98D0CDB02C4A2454D4573
:100260006357B514832307011A850C41B395B20077
:10027000B3F4750099E0D18DCD8FB725001011052D
:100280009385C5C2E393A5FE0C5B91064D8E10DBF2
:10029000E31DD3FA145B21661306361CD18E14DBE2
:1002A00002C2CD46124763D8E61037070140410726
:1002B000184B9316A70063D406109316B70063D3A8
:1002C00006109316C70063D206109316D70063C1B9
:1002D0000610B707040037074000D98F3CC8854691
:1002E0002308D4063CC8304878486318E60E784C9A
:1002F000150778CCA30DD40437070140344393E6A7
:10030000062034C37CC88347C401B1C38357E401CA
:100310009DCF08504C50B367B50089C703562407DA
:10032000ED3315C583454407014613058402044C8B
:10033000EF10405E8357E40104D023220402FD172E
:10034000C207C183231FF40099E3230E0400285C35
:100350006C5C61661306066A4D3B19C91C4C232E62
:1003600004061307800D3CDCB707004023A0E7100C
:100370008347B405C9C3B727001003230405938737
:1003800047C0744C9385870201472E86714583A22E
:100390000500631C5304BD659385F5A563F5D5126F
:1003A000B7070140B8431377F7DFB8C399A0A24558
:1003B00085052EC465B5124705073AC2E5B5B707EE
:1003C000200011BFB707100039B7B707080021B7E1
:1003D0003CC8E39607F023280404232E04043707BF
:1003E0000140344393F6F6DF29BF0507F105E3101A
:1003F000A7FAA30D0404032584088325C4083166E5
:10040000130606351933E30E05DE1C4C23260408BB
:100410002324F408834704076390071E83570409C5
:100420008507C207C1832318F408035704099307FB
:100430003006E3F8E7DCB707014023180408B843A7
:10044000E1769386C6E3758FB8C3B716002083A7FD
:10045000C6563707C4FF7D17F98F3707014023A61B
:10046000F656B7053C008147130707201305000225
:100470006146B3D6F500858A89C6B386E700238036
:10048000A6008507E397C7FEB7073C00B7040840FE
:10049000DCC8EF10605BDC4CA166B7070140B843D5
:1004A0009386361C558FB8C345311C4C232E040649
:1004B000232604063CDC3CD42324F4082326040829
:1004C000230804063DBB9305500463FCD5109386B6
:1004D000A6FB93056004B3F6B60281FEF144B304B3
:1004E0009702A697985F1385440132953EC0029704
:1004F00082473727001013858400DC571306C7C2D4
:1005000032958297835424087D4681459387140051
:100510002311F40883471408681013B757003307F2
:10052000E040F98F03570406A300F4083AC0EF1027
:10053000206CB707021B938727103ED6F977938765
:1005400037C02318F1029307C0FD2309F102930776
:1005500030FC230BF102B71717189387376C3EDC7A
:10056000B7271B1C024783462401938797A13EDED1
:1005700089679387D7E16C107D466800231AE102F2
:10058000A309D1022310F104A30B9102EF10C06460
:1005900093077002230AF406B72711229387275482
:1005A0001CD4B7475566938737436C007D461305C7
:1005B00004035CD4EF10406293076004231FF4002F
:1005C0009307803E2319F406814701475CD06146BA
:1005D00085478145228518D0230EF400EF10406135
:1005E00009BD9545E397B6E0F1463307D702BA97C0
:1005F000DC571305870029B723180408D1B5B707BE
:1006000000401307800F23A0E71001A0370780E008
:100610005C43D183F98B2300F7000147370580E065
:10062000856585461306000393172700AA97AE97A2
:100630002380D700A38007002381D7000507E31597
:10064000C7FE82808280711106C037270010130711
:1006500047F9B7270010938707FABA863E85636586
:10066000F70437270010130707FAB72700109387FE
:1006700087FA6370F706BA86B7250010938575FA76
:10068000998DE199A105BA9589A013962700984202
:1006900032970C43D84232970CC385079846E3E65D
:1006A000E7FEB106E3FFA6FA9846814779FFD5BF7A
:1006B0009842139627003297232007008507D842D7
:1006C000E3E8E7FEA1066386B600D84281476DF3F2
:1006D000D5BF8D3F824011018280B707004098430B
:1006E0008567938717106303F7008280411106C660
:1006F00022C426C2893F193F3704084085473CC8B9
:10070000370700428567938717702320F710512021
:100710008D21EF00D030B7040040DC50B707100047
:1007200093870740DCD0372700421C43F59B1CC34E
:1007300083270411216713070780D98F2328F4101A
:1007400037D5FC001305F5BF97000010E780E0D90E
:100750008347041293E747002300F41293070040F5
:100760009CC402C00247A54763C9E7003E87824791
:1007700085073EC08247E35CF7FEB707004023A42D
:100780000700F3670430E532B2402244924441014D
:100790008280B746801F138706F3B7170020938720
:1007A000C72E938686F783230700832247000323FF
:1007B000870048470C4B504B23A0770023A25700DB
:1007C00023A46700C8C78CCBD0CB6107E107E31C2B
:1007D000D7FCB717002003C7C72E9307F00F631D80
:1007E000F700371700201307C72E83470700C19B68
:1007F00093E7A7002300F700B717002003C7E72EF1
:100800009307F00F630FF710B717002003D7072FD8
:10081000C167FD176303F712B717002003D7272F0F
:10082000C167FD176302F712B717002003D7472FE0
:10083000C167FD176301F712B717002003A7872FC1
:10084000FD576307F712B717002003A7C72FFD57FF
:100850006302F714B717002003A70730FD57630D95
:10086000F714B717002003A74730FD576308F716A2
:10087000B717002003A78730FD576303F718B71792
:10088000002003A7C730FD57630EF718B7170020E5
:1008900003A70731FD576309F71AB717002003A70D
:1008A0004731FD576306F71CB717002003D7873180
:1008B000C167FD176300F71EB717002003D7C731C4
:1008C000C167FD176303F71EB717002003D7E73191
:1008D000C167FD176306F71EB717002003D707325D
:1008E000C167FD176309F71EB717002003A747323A
:1008F000FD57630FF71EB717002003A78732FD5778
:100900006304F720B717002003A7C732FD57630C15
:10091000F720B717002003A70733FD576309F72215
:100920008280371700201307C72E83472700C19BFB
:1009300093E737002301F700C1BDB7170020130765
:10094000D0F82388E72EC9BDB7170020130770FB26
:100950002389E72ED1BD371700201307C72E8357F1
:10096000870093F707C093E707142314F700E9B54E
:10097000371700201307C72E5C47FD76F58F93E7E6
:100980008725B70601FCFD16F58FB706AB02D58F9C
:100990005CC755BD371700201307C72E1C4BFD76CB
:1009A000F58F93E7870CB70601FCFD16F58FB706A8
:1009B000E400D58F1CCB79BD371700201307C72E55
:1009C0005C4BFD76F58F93E7074BB70601FCFD16F0
:1009D000F58FB706AB02D58F5CCB61B5371700201A
:1009E0001307C72E1C4FFD76F58F93E70719B7063F
:1009F00001FCFD16F58FB706E400D58F1CCF8DBD29
:100A0000371700201307C72E5C4FFD76F58F93E74D
:100A10008770B70601FCFD16F58FB706AB02D58FC0
:100A20005CCFB1BD371700201307C72E1C53FD76CE
:100A3000F58F93E78725B70601FCFD16F58FB706FE
:100A4000E400D58F1CD399B5371700201307C72EA4
:100A50005C53FD76F58F856693860696D58FB7062F
:100A600001FCFD16F58FB706AB02D58F5CD335B50B
:100A7000371700201307C72E1C57FD76F58F93E715
:100A80000732B70601FCFD16F58FB706E400D58FD7
:100A90001CD719BDB71700209387C72E03D7C702ED
:100AA0001367F73F2396E70201BDB717002093872E
:100AB000C72E03D70703FD76758F2398E70229B564
:100AC000B71700209387C72E03D72703FD76758FAE
:100AD0002399E70211B5371700201307C72E835754
:100AE0004703FD76F58F93E7C740231AF702EDBB66
:100AF000371700201307C72E1C5FB7060080F58F3D
:100B000093E757031CDFC5BB371700201307C72E19
:100B10005C5FB7060080F58FB7B603009386069832
:100B2000D58F5CDFC5B3371700201307C72E3C43B2
:100B3000FD76F58F8566938686BBD58FB70601FC5B
:100B4000FD16F58FB7065503D58F3CC3D9B33717BC
:100B500000201307C72E7C43FD76F58F93E7077DB2
:100B6000B70601FCFD16F58FB7063902D58F7CC399
:100B70008280B707084003A647103747FCFF7D1760
:100B8000798E371700201307C72E83562700BD8A9A
:100B9000BA06D18E23A2D71003A68710C1769386FA
:100BA000F60F758E83464700A206D18E23A4D71078
:100BB00003A6C710E1769386F607758E8346670015
:100BC0009E06D18E23A6D71003A60711B70604FFF1
:100BD000FD16758E145FCA06D18E23A8D71037264E
:100BE00000421446B7070088FD17FD8E1C43BD8BDD
:100BF000EE07D58F1CC68280B7170020238A0732E4
:100C0000B717002083C787359DCFB717002083C74C
:100C1000973591C7B71700200547238AE732B717E2
:100C200000209387473303C70700930617002380EC
:100C3000D700B717002083C7B73591C70907B71783
:100C40000020238AE7328280B717002003C7A73825
:100C5000B71700209387473D630CF508B72600427D
:100C600083A7060C93F7F70723A0F60CB71700200D
:100C700083C7E733C54695CF05466384C70493070A
:100C8000000837160042930546000CC1C20689656C
:100C9000CD8E54C19306C60814C542074D8F58C562
:100CA0001306060510C9C207CD8F93E787005CC9FC
:100CB0008280C546B717002003C78738930700080E
:100CC000C9B7B726004203A7060C1367070823A07D
:100CD000E60C371700201307473D8D466303E500F8
:100CE000BE86B717002003C797389307400851BF47
:100CF000B726004283A7060C93F7F70723A0F60C4C
:100D0000B717002083C7E7338546BDF785465DB733
:100D10003715002013050539B7170020938787374B
:100D20001CC1B71600209386C63303C736000E07D2
:100D30007D1742070566518F58C1938746001CC531
:100D400083C7C6008E07FD17C207D18F5CC521057A
:100D50008280311106C822C626C43714002013042D
:100D6000C4338347F4009A0793F707043EC08347D0
:100D700024019207C18B3EC293941700513F130781
:100D800085005C5093D687000346340293F7F70F33
:100D9000A207D18FB387F640B71600202396F63806
:100DA0008347C401B5C7B717002083C797359DC7D0
:100DB000371700201307C7339307E7011CC5834784
:100DC000D701FD17C20703471701458FD98F024787
:100DD000D98F0567D98F5CC513070501B7170020A8
:100DE0009387C7381CC3B71600209386C63383C7C2
:100DF000C601FD17C20703C61601458ED18F0246F4
:100E0000D18F0566D18F5CC383C7F601B9EB21078B
:100E1000B71600209386C63303C6360283C7460240
:100E2000A207D18F3716002003268633B2971CC342
:100E3000B717002083D7C7388E07FD17C20783C6B0
:100E40001601D58CC58F9246D58F8246D58F856683
:100E5000D58F93E787005CC3C2403244A24451015E
:100E60008280B71600209386C633938706021CC77C
:100E700083C7F601FD17C20783C61601C58ED58F3D
:100E80008246D58F8566D58F5CC7410751B79317CA
:100E9000150005851377550513F5A70A598D931786
:100EA000250009851375350393F7C70C5D8D9317DE
:100EB000450011815D8D1375F50F8280AA8711E1C0
:100EC000854793F7F70F371700208346E733054729
:100ED0006371D704139727003E9746079566A106CE
:100EE000558FB706002023AEE61A0547637BA7029D
:100EF0009386F70F371700422318D70637070042AB
:100F00008546A307D70C4167BA97370700427CCFC5
:100F10008280139727003E9742079566A106558F5A
:100F2000C9B7371700422318070637070042A3073F
:100F3000070CD1BF511106C422C226C037140020AD
:100F40001304C43303472400B72700109387C7F363
:100F5000BA9703C507009D37484097F0FF0FE78019
:100F6000406283473401B7040042DCCC5C489CD02B
:100F70001C4CDCD08347C401238AF40437150020BD
:100F80001305C53ED13183470401239AF4008355EC
:100F90000400370500201305453597000010E78051
:100FA000808CB70700209387070E03D74700B7064A
:100FB0001E00558FD8C337070020B717002093872E
:100FC00007392320F712BC4CA183858B03474400CB
:100FD000058B93065005638FE702B717002003C700
:100FE000F73319CBB7170020938787373E972380B5
:100FF000D7008507E39DE7FEB71700209387C73327
:101000000547A387E70223880702A24012448244CF
:10101000310182809306A00AC9B7511106C4AA857E
:10102000B71700209387873809472380E700A380FC
:10103000E7002381E700A381E7001306B00337151B
:1010400000201305C533EF0030397D36A240310151
:101050008280511106C4B7060042056693071670D8
:101060002390F6108D472380F606B70780E0D8431B
:1010700055839377F70021471D8FB71580E083C70D
:10108000B50413F5F70F9307F00FB397E70093C775
:10109000F7FFE98F11453317E500D98F93F7F70F65
:1010A000A385F50483C7950493F7F70F93E717001B
:1010B000A384F5041307F00223A6E60CFD779387BB
:1010C00007702394F600B7170042130616A090DBB2
:1010D0002387A60C1307C0022390E710C122A24069
:1010E00031018280311106C822C626C42AC02EC210
:1010F00015448144B706004083A746184177F98F0D
:101100001247D98F23A2F618024597000010E780F6
:10111000C089AA947D1479FC154533D5A402C24038
:101120003244A24451018280B71700208387D742FE
:101130003E95A5576353F5002555B54763D3A700E2
:1011400035459307750193F7F70F3717002083464E
:1011500067429385960193F5F50F13071002014638
:10116000637DF7001387E7FD13161700370700208C
:101170001307874332970356070013175600137758
:1011800007801376F603598E138716002E07BE06C6
:10119000CD8ED98E3387C60093961700B7070020EF
:1011A0009387C73EB69783D70700B726004283A52B
:1011B000C60813F6F7033705FCFF1305057CE98D18
:1011C0004D8E960793F70780D18F23A6F6089C468D
:1011D0003706F8FF1306067CF18FD98F9CC6B70738
:1011E0000020938747359356B700BD8ACE06CC5B67
:1011F000370601FF7D16F18DCD8ED4DB9356F700B7
:10120000858ADE06CC5FF18DCD8ED4DFB706070070
:10121000758FF443758E518FF8C30145828051114B
:1012200006C4A521B707084003A707111367770075
:1012300023A8E710256713072764B8D31967130796
:10124000B7BA23A6E710370729217D1798C703A748
:101250000711B78603FF9386F67F758FB746D000D8
:10126000558F23A8E710A240310182800505194758
:10127000B347E5029387870CD2073365E50237B79A
:1012800002001307A7AA3305E502C98F8583370734
:101290000080D98F371700425CD382801301C1FCD4
:1012A00006D822D626D497000010E780A0A5B7154F
:1012B00000209385454203C725003705002013050C
:1012C000452B5441B70701FFFD17FD8E130697010B
:1012D0001376F60F4206D18E54C13706002013064E
:1012E000462A5442FD8E03C555004205C98E54C29C
:1012F00037050020130645357446FD8E03C365008F
:101300004203B3E6660074C69303170093F6F30F27
:10131000032346033373F30093821600CE02336334
:101320005300232A66028322C603B3F2F200139409
:1013300076013703FF0033746400B3E28200232E8A
:10134000560283224604B3F2F2008582C206B3E657
:10135000D20074C2B70600209386462C83A24603AF
:10136000B3F2F200CE03B3E2720023AA560283A2C4
:10137000C603B3F2F20093137701B3F36300B3E251
:10138000720023AE560283A24604B3F2F2009353D6
:101390001700C203B3E2720023A256047917137731
:1013A000F70FB70600209386462883A2C600B3F243
:1013B000F20093137701B3F36300B3E2720023A644
:1013C000560083A24601B3F2F2000583420733E7D9
:1013D000E200D8CA03C73500B70600209386462628
:1013E000CC42FD8D9312770133F3620033E3650045
:1013F00023A26600CC46ED8F058342075D8FD8C6D9
:10140000371700423C4B93E707023CCB8567938735
:1014100077402312F102930710022303F102B7274A
:10142000004213076060D8CBB706004083A7461878
:101430000177F98F416713070720D98F23A2F61888
:10144000B7B76086938787531CC21305453597F05D
:10145000FF0FE780405FB7170020938707413ECC1E
:101460005C103ECE8567938707803ED09DA289475A
:10147000024763C4E712F24703C50700C53B3724A0
:101480000042232C040085471CCC0D4718CC1CCCF3
:101490001305800C97F0FF0FE780600B5C4C37C79B
:1014A0000200D98F5CCCA56793872780232AF40C90
:1014B0005C4CB9838D8B0257B314F700139704016A
:1014C00041839305C0193AC23A8529392AC4930544
:1014D0004026124501395C4C01777D17F98F5CCCB1
:1014E000A56793879781232AF40CA2471D8D931734
:1014F00015003E950A0513975400058F0A07269795
:101500003357A7022943B377670293B7570093C7AE
:101510001700335767023E971377F70F6244A2858F
:101520002301E4009307A00FB387F402B3D7A70207
:10153000B3F6670293B6560093C61600B3D7670298
:10154000B69793F6F70F2300D4009307401FB38795
:10155000F402B3D7A70233F66702133656001346D8
:101560001600B3D76702B29793F7F70FA300F40002
:10157000138606FC1376F60F1305F003E369C5EE38
:101580003246B29636C6C246B6973EC8D247BA97DA
:101590003ECA824785073EC0D9BD8D473247335783
:1015A000F7022380E50042473357F702A380E500A6
:1015B0005247B357F7022381F500E2478D073ECC2F
:1015C000724705073ACE3717002013079741638704
:1015D000E70002C002CA02C802C671BD370500207A
:1015E0001305452A97F0FF0FE780E04537070040D5
:1015F000832747188176F58F93E707202322F71872
:10160000B72700421D47D8CB97F0FF0FE780E03E99
:10161000294597F0FF0FE78080F3B7070440F8579C
:10162000B71700202386E742292897F0FF0FE780AD
:1016300000790145D53CC2503254A25413014103F4
:101640008280B727004203A7870E799B23A4E70E69
:101650003707044023200700D843799BD8C38280F2
:1016600009C69D4763D3A70041152E956346C50063
:101670003D066353C5002A8641061355F641718124
:101680002A963D8A3305A6408280311106C822C6BB
:1016900026C4B717002003C7B7313D8B9D4763FBB6
:1016A000E70E930707FF93F6F70FB7150020938512
:1016B0004542A385F50055171376F70FA381C500A2
:1016C0001307000F6374C70E01473716002023036A
:1016D000E6421387370006071377F70F1306000F4C
:1016E00081456369E600BA857D466373E600FD4582
:1016F00093F5F50F37160020130646422302B60075
:10170000139716001377F70F93067700A302D600FE
:10171000B10786072303F6001507A303E600B717F2
:10172000002083A78731D183BD8B1D476378F708DD
:10173000C11793948701E1843714002013044442B5
:1017400023059400B71700209387C72E3EC0984307
:101750000146A6853AC21375F70019372300A40085
:101760001247135507016156A6853D89D53DA30053
:10177000A4008D47A304F4008247D05B5206518237
:10178000B7270010938787F49385C70001450D475D
:10179000054325A8B715002093854542A385E5009C
:1017A000BA87BA8613065700A381C5003287BD45A4
:1017B00063F3C5003D471377F70F01BF939487018B
:1017C000E1849DBF8907638BB70083D60700E34B95
:1017D000D6FE7D17620761871A85EDB709C5B71771
:1017E0000020A386E742C2403244A24451018280D5
:1017F0005D7186C6A2C473700430A138371700200B
:10180000B717002093878745232CF7323714002021
:101810001304C433B717002023AA874413063004E7
:1018200081450A85F1269307C0032310F1008547FF
:10183000A301F10037C7898E130767ED3AC211473C
:101840002306E10013070002A306E1001307E004EA
:101850002307E100A307F100130750022308E1006A
:101860002309F1008D47A309F100B757550093876D
:1018700057553ECAB70700019387B7653ECC93071B
:101880000010231FF1000A85EFF02FF90145693898
:10189000EFF04FEAEFF0EFCBB70708401307A007D0
:1018A00098C373600430230C0402B7170020238808
:1018B0000744B7170020238E0754B7170020A38EC4
:1018C0000754B6402644616182809307500205C9DF
:1018D0009307F5FF93F7F70F29476372F702B147B4
:1018E0006307F502930735FF93F7F70F6547637AB0
:1018F000F70013077002930750026308E5003E8566
:10190000828079159377F50FDDBFAA87CDBF930746
:101910006002F5B7211106CA22C826C62AC02EC207
:101920003284B717002083C7074593F7F70FD1C359
:10193000B7170020854423889744B7170020238ECB
:10194000075422879377F40F86079387670237043B
:1019500000201304A4492310F4001375F70FB537C2
:10196000B70700209387C7492380A70037170020B7
:101970001307D7553AC4230097000356040083C6C3
:10198000070093F6F60F420641829245024597F012
:10199000FF0FE78080CD1305401F97F0FF0FE78012
:1019A00000BB224723000700D2404244B2446101F9
:1019B000828097F0FF0FE78020D59DBF511106C4AC
:1019C00022C22A84EFF04FF6B717002023AC8754C9
:1019D000A240124431018280B70600209386464A15
:1019E000014715461D43A14235A87C5D858B91C7F3
:1019F0007C5D858BFDDB7C5DCDBF5C4593E7070897
:101A00005CC583C706008A07AA9783A3050023A0A5
:101A1000770005078506910531A005078506910524
:101A200063035702E303C7FC83C706008A07AA972C
:101A300083A3050023A07700E31167FE5C4593F7BD
:101A4000F7F75CC582808280130141F986D4A2D267
:101A5000A6D0B717002005472384E744B707002026
:101A60002947238CE748B70700207D57A38CE74818
:101A700037170020B71600208347D75593F7F70F85
:101A8000E5FF83C7C65593F7F70FFDF797F0FF0FF4
:101A9000E78080C7737004301810B717002023A0A8
:101AA000E756B7170020B736030023A6D756B71757
:101AB000002023A42756B7270010138447F593046A
:101AC0000404938747F59443944214C39107110784
:101AD000E39B97FE370600201306464A8A85854613
:101AE0001945371700411D4335A07C5F858B91C791
:101AF0007C5F858BFDDB7C5FCDBF5C4793E7070890
:101B00005CC7834706008A07BA979C439CC1850639
:101B100005069105E38BA6FC834706008A07BA9762
:101B20009C439CC1E375D3FEB70708401307F03F01
:101B30002392E7083707000198CF97F0FF0FE7805F
:101B4000C03773700430B717002083A58756371548
:101B500000415935B717002083A707569443184012
:101B600014C311049107E31B94FE37070840835701
:101B70000708C207C183B716002023A2F6569307B1
:101B8000F03F2312F7087360043097F0FF0FE780EF
:101B9000A0B70147B70580E0054693060003930709
:101BA00007408A07AE972381C7000507E319D7FED0
:101BB000B7170020238E0754B7170020A38E0754B1
:101BC00073600430B7070840C84FA65016548654B7
:101BD0001301C106828000002A8309CA83C305005D
:101BE000230073007D16050385056DFA82800000D1
:101BF0002A8311C62300B3007D16050365FE82808B
:101C000000000000080000000000000007000000C5
:101C10000F00000006000000010000001500000099
:101C2000140000001300000012000000010020005A
:101C3000B40000101100000000000000B40000100B
:101C4000110000000000000001001000B4000010AE
:101C50001200000000000000B4000010120000009C
:101C60000000000001000800B40000101300000094
:101C700000000000B400001013000000000000008D
:101C800001000400B4000010140000000000000077
:101C9000B40000101400000000000000020020004A
:101CA000B40000102100000000000000B40000108B
:101CB000210000000000000002001000B40000102D
:101CC0002200000000000000B4000010220000000C
:101CD0000000000002000800B40000102300000013
:101CE00000000000B400001023000000000000000D
:101CF00002000400B40000102400000000000000F6
:101D0000B40000102400000000000000400020008B
:101D1000B40000103100000000000000B40000100A
:101D2000310000000000000040001000B40000106E
:101D30003200000000000000B4000010320000007B
:101D40000000000040000800B40000103300000054
:101D500000000000B400001033000000000000008C
:101D600040000400B4000010340000000000000037
:101D7000B4000010340000000000000080002000CB
:101D8000B40000104100000000000000B40000108A
:101D9000410000000000000080001000B4000010AE
:101DA0004200000000000000B400001042000000EB
:101DB0000000000080000800B40000104300000094
:101DC00000000000B400001043000000000000000C
:101DD00080000400B4000010440000000000000077
:101DE000B4000010440000000000000000012000CA
:101DF000B40000105100000000000000B40000100A
:101E0000510000000000000000011000B4000010AC
:101E10005200000000000000B4000010520000005A
:101E20000000000000010800B40000105300000092
:101E300000000000B400001053000000000000008B
:101E400000010400B4000010540000000000000075
:101E5000B4000010540000000000000000802000CA
:101E6000B40000106100000000000000B400001089
:101E7000610000000000000000801000B4000010AD
:101E80006200000000000000B400001062000000CA
:101E90000000000000800800B40000106300000093
:101EA00000000000B400001063000000000000000B
:101EB00000800400B4000010640000000000000076
:101EC000B40000106400000000000000000060008A
:101ED000B40000100100000000000000B400001079
:101EE000010000000000000000005000B4000010DD
:101EF0000200000000000000B4000010020000001A
:101F00000000000000004800B400001003000000C2
:101F100000000000B40000100300000000000000FA
:101F200000004400B40000100400000000000000A5
:101F3000B4000010040000000000000001010101D5
:101F4000020408142864FA0009036803D203490450
:101F5000CF0466050002014004020140080201406E
:101F60000C02014010020140140201400003014034
:101F700004030140100001403000014040000140D6
:101F8000700101408001014090010140A001014029
:041F900040010140CB
:0C1F9400A81F00100000002095040000B1
:081FA00058120020C6000000E9
:101FA800000000000000000000000000FE05001016
:101FB800000000000000000000000000FE05001006
:101FC800000000000000000000000000FE050010F6
:101FD80000000000000000000000000000000000F9
:101FE800FE050010FE050010B0040020FE050010DC
:101FF800FE050010FE050010FE050010FE0500108D
:10200800FE050010FE050010FE050010FE0500107C
:10201800FE050010FE050010FE050010FE0500106C
:10202800FE050010FE050010FE050010FE0500105C
:10203800FE050010FE050010FE050010FE0500104C
:10204800FE050010FE050010FE050010FE0500103C
:10205800FE050010FE050010FE050010FE0500102C
:102068000100000044130020540300200060000019
:10207800E000002000600000E80000200860000088
:102088000000000008501E006801002000600000E9
:10209800B402002000600000EC1300200060000083
:1020A8008001002000600000900100200060000016
:1020B800B001002000600000C401002000600000A2
:1020C8000000000000600000B8010020006000006F
:1020D800880100200060000060010020006000000E
:1020E800700100200060000058010020006000001E
:1020F800A402002008600000001000420820000030
:1021080000100042082001000000004208200600DC
:10211800152000424030000284000042483000028E
:102128008400004248300202152000424830000571
:102138001520004248300101001000420020000034
:1021480000000042002006000000000008500100C6
:1021580004140020081007000000000008500500C3
:10216800152B0B00001000420020030000000000A7
:102178008050020027100042483000800C200042A6
:102188008020FF000000000000500A0004200042E8
:10219800403000040C20004240300001182000426A
:1021A8004030000118200042403001011820004250
:1021B800403000021820004240300202182000423D
:1021C80040300002980100200860000018200042FA
:1021D8004030000100200042403000010C20004245
:1021E800802000000420004240300001042000420A
:1021F8004030000204200042403000FC052000422C
:102208004830000108200042403080800920004208
:102218004030020710200042802000002C020020DD
:1022280008600000D220004240300F0F0820004212
:1022380040308080092000424030010710200042D1
:102248008820FF01050108404030051F2C020020AE
:10225800086000000820004240301E3FD2200042A3
:102268004830030F0000000020202410DC2000422A
:10227800403080C0DD20004240300107DC200042B1
:1022880040303C3CE420004240300C1CDE20004240
:1022980040300404092000424030207809200042E0
:1022A800403000800A20004240300207DD20004212
:1022B80040300008E220004240300080E320004225
:1022C8004030000300200042403001010420004259
:1022D80040300101042000424030FCFC052000424F
:1022E800403001011C20004240300010DC01002079
:1022F800086000000000000020202410DC200042BC
:10230800403000C0DD20004240300007DC200042A1
:1023180040303C3CE42000424030081CDE200042B3
:10232800403004040920004240303078092000423F
:10233800403080800A2000424030020705010840F2
:102348004030101FDD20004240300808E2200042E3
:1023580040308080E32000424030030300200042E8
:1023680040300101042000428020FF031520004274
:10237800403006061C200042403010102710004252
:1023880040308080DC010020086000000E101A1028
:102398001D1029102B102D1039103A103B103D102C
:1023A8004D18881889188A188B188C188D18CA180F
:1023B800CB18CC18CE180C190D194C194D198D19AC
:1023C800CD190D1A4D1A8D1ACD1A4D1BCD1BCD1CCA
:1023D8004D1ECE1FCE1F0000800082008A007000B4
:1023E80004010040000080E0481080E0080000423E
:1023F8001C0000422400004260000042000100422C
:102408008000004220000042240000420C000042EC
:1024180030100042001100424C11004208200042D6
:10242800A82000428C2000422000004024000040E8
:10243800280000402C000040FFFF26002500000077
:10244800F9020000033302040100013005458280CF
:10245800130181FD06D216D01ACE1ECC2ACA2EC868
:1024680032C636C43AC23EC0592292508252724392
:10247800E2435245C2453246A246124782471301FB
:10248800810273002030711122C0370301400327F5
:1024980003039347F5FFF98F2328F302130303205F
:1024A8009142370401401304842125A005812207A5
:1024B800A2068507638A570093751500E5D99345E9
:1024C800F7FF6D8E558EDDB723A0C3001103630B94
:1024D80083009A83032603009306000A1307F00F6C
:1024E8008147D9BF0244110182807111B7070042A8
:1024F80083A747103EC0B706004283A7461002478D
:10250800998FE3ECA7FE11018280711106C0930731
:10251800803E3305F502D13F82401101828031119E
:1025280006C822C626C4B717002023A0A734B707B9
:102538000042BC4FA183858BD1C70144B70400205A
:10254800B71700209387C7333EC283A7440CA297CE
:102558003EC01247B307870003C54700971000F035
:10256800E780208D82472380A70005049147E31E5A
:10257800F4FCB707002083A7470C9843B70700422D
:1025880023A0E708B717002083C70734858BB30754
:10259800F04093F7B7FA9387A70AB71600209386F7
:1025A800863793F7F70F13978700BA9713970701A2
:1025B800BA979CC2DCC29CC6DCC6C2403244A24464
:1025C80051018280B707004223A0A70865BFB7075B
:1025D8000042C85F8280B7070042A8438280B707DD
:1025E8000042C84309898280828082808280B7073E
:1025F800004205472382E706B71700209387C733B1
:10260800A38707028280511106C422C226C03684DD
:102618008544371700201307C733A30797023707E6
:1026280000202300070C371700200347473309070A
:102638001377F70FB71600202396B638931637008E
:102648003717002013070739369708C393973500C3
:10265800FD17C20783564700D58F5CC3B28537057F
:10266800002013054535712A37170020B7070020C9
:10267800938707132328F73C42044180B707004299
:10268800239A8700370700201307870CD8C773746D
:10269800043084C3AD2E73100430A2401244824427
:1026A80031018280B7070042094798C3B717002055
:1026B80003A5073D19CD511106C42526B7170020DB
:1026C8009387C733A387070223880702A2403101F3
:1026D8008280B71700209387C733A3870702238810
:1026E80007028280411106C622C426C2AA8413D7D3
:1026F800B50093074006B307F70299E39307803EB6
:1027080093F5F57F3385F5020D67130707EE33441C
:10271800E5021304540C420441803347F702B3E541
:10272800E502B385F502D56793875755B385F5025A
:102738009307803EB3C7F5023EC0B70700209387D2
:10274800472C6384F404B717002083C7E733BE859A
:1027580009476373F70089459307007D3345F50200
:1027680093F5F50F1375F50F492E81460147931719
:1027780044010246D18F998F8583D58F9CC02685C9
:10278800B2402244924441018280B717002003C717
:10279800E7338547630FF702B726004283A7C60CC5
:1027A8003707D0FF1307F7CFF98F37073000130724
:1027B8000730D98F23A6F60CB717002003C7E733D5
:1027C80085476309F702B7060080D5671387575511
:1027D80079BFB726004283A7C60C3707D0FF130777
:1027E800F7CFF98F3707300013070730D98F23A6A3
:1027F800F60CD9B7B706008037B702001307B7AA97
:10280800BDB7511106C40146F13DA2403101828095
:10281800B717002083C7174293F7F70FC5C7B71735
:10282800002083C7074299EFB717002093874742D4
:1028380003C757000907A382E700B7170020054719
:102848002380E742B7270042B857419B13674700E8
:10285800B8D7F857419B13677700F8D7B85B419B07
:1028680013677700B8DBF85B419B13677700F8DBE9
:10287800B85F419B13677700B8DFF05FFD769386FA
:10288800F60F758E056713070780598EF0DF03A6CC
:102898000708758E598E23A0C70803A64708758EAA
:1028A800598E23A2C70803A68708F18E558F23A443
:1028B800E70803A7870C1377F78F1367072023A46C
:1028C800E70C8280B7270042B857419B136747003F
:1028D800B8D7F857419B13677700F8D7B85B419B87
:1028E80013677700B8DBF85B419B13677700F8DB69
:1028F800B85F419B13677700B8DFF45F7D771307F4
:10290800F70FF98E93E60620F4DF83A60708F98E01
:1029180093E6062023A0D70883A64708F98E93E6F6
:10292800062023A2D70883A68708758F1367072078
:1029380023A4E70803A7870C1377F78F13670720EB
:1029480023A4E70C8280511106C422C23724004216
:102958008327C40C37070010D98F2326F40C83274C
:10296800C40C370700F07D17F98F2326F40C854730
:102978001CCC95471CCC930700033355F50215056D
:10298800420541819D360325040F2E052D81A24065
:10299800124431018280511106C422C2B727004275
:1029A800D84313671700D8C337040440094718C031
:1029B80003A7870E1367170023A4E70E9307800861
:1029C8005CC0916789073CD09307F0303CD811452B
:1029D800293EB747008089073CD0A2401244310104
:1029E8008280B707004223800706C8C7054798C3F7
:1029F800370700428347470693F7F70FE5DFB70726
:102A0800004205472382E7062380E7068280B7173E
:102A1800002083A7874099CB370700400327070B7F
:102A28001D8FB7870200ED1763F8E70C011106CE7A
:102A380022CC26CAB7070840D447370404401840B8
:102A48003AC0504032C22C502EC4D8471367870072
:102A5800D8C728582AC6370600400C563858136776
:102A6800170038D8B72400421307F03FD8C02167B1
:102A78002EC84D8F18D6D4C7393F2145BD347C5454
:102A8800371700200347C742998F910713D737405C
:102A9800B717002083A78731BD83FD8BB387E70273
:102AA80095072947B3C7E70237170020232EF740B9
:102AB800B706004003A7060BB717002023A4E7407A
:102AC80083A7840EF99B23A4F40E2320040623284D
:102AD8000406DC40F99BDCC0024718C0124650C00F
:102AE800A2473CD0324528D8C2458CD67C54F24007
:102AF8006244D24405618280828071118567938720
:102B080047802310F10089472301F1002E835C00E0
:102B1800AE970386C7FFC94763E2A706A14763E7E5
:102B2800A700131716001316870161868547638D62
:102B3800F510814593971500AE97B715002093853A
:102B48000541BE959A9503C70500B717002083A6CF
:102B5800C741BA96B71500428851C1777D8D3707AE
:102B680000201307071C1A9783470700A20733079B
:102B7800D600D98FC98F9CD1110182809307A003F9
:102B880063F5A7029307400463F7A700131716001D
:102B98001316870161863307C040131687016186C3
:102BA80085476389F504894571B79307D5FE93F77F
:102BB800F70F3547637BF70069476364F70A0547F2
:102BC800638FE50001468545B5B705476385E50090
:102BD8000146814585B711476375F7068145130599
:102BE800F5FD1375F50F0D4701466370A70631A073
:102BF8008945F5B7930780028945138757FE1377F0
:102C0800F70F8D4663F3E604138767FF1377F70F13
:102C18008D4663FCE600138797FE1377F70F63F67C
:102C2800E60013073002E377F7F093971500AE97A5
:102C3800B715002093850541BE9503C71500791780
:102C480029B70146814511A0814593971500AE9794
:102C5800B715002093850541BE9503C715000907E0
:102C6800EDB50547E386E5F801468945E1B551111B
:102C780006C4DD28A24031018280B717002083C72F
:102C8800C7406386A700B71700202386A740828025
:102C9800B71700207D572386E74082808280828094
:102CA800511106C422C226C0372400421C4493F79F
:102CB80007FC93E7E7011CC49D475CC85C4C71772F
:102CC8004107F98F1167130787F8D98F5CCCB714C0
:102CD80000429C50370701FF7D17F98F3707140012
:102CE800D98F9CD0B14723A8F4145C4093E7072000
:102CF8005CC0B70700400D4723A0E7308327040EC8
:102D080093F7F7E393E7070C2320F40E8327440E89
:102D180093F7F7E193E707162322F40E8327440D70
:102D2800056713070780D98F232AF40CD534832726
:102D3800C40A93F7F7EF2326F40AB707002083C7DE
:102D4800E74323ACF41011679307F7FF23A8F412A5
:102D5800A2401244824431018280511106C4013FCD
:102D6800053FA24031018280B706084003A64610FD
:102D78003717002013074742834747008E078345CC
:102D88005700A205CD8F83451700BA05CD8FB7052B
:102D9800FCFF6D8ED18F09660906D18F23A2F6102C
:102DA80083A7061113F6F78783477700F9179E075D
:102DB800D18F23A8F610372600420C46B7070880A3
:102DC8009387F787FD8D834627008506834737005D
:102DD8009E07034707006E07D98F13973601D98FCF
:102DE800DE06D58FCD8F1CC68280B70700402547E9
:102DF800D8C3754798D31D4798D705671307273059
:102E0800D8D782809377F50F1375F50F6378B502DD
:102E18003717002003264744B70600209386064448
:102E28000A0532950841139727003697184308C3B7
:102E3800850793F7F70F3E85E3E4B7FE8280930793
:102E4800803E3305F5021581B717002023A6A74455
:102E5800828001458280130181F986D2A2D0A6CE54
:102E68005800B717002023A2E744B707002093872C
:102E78000744138687059443944214C391071107A6
:102E8800E39BC7FEB707084003D7C700136707408F
:102E98002396E700371700201307A72198D3B71701
:102EA800002003A5C7568524B717002083C7874489
:102EB8008DC3B707002003C587499307F00F631434
:102EC800F504B707002003C597499307F00F631E61
:102ED800F502370408408347C40493E71700230624
:102EE800F4047C4493F7F7EF7CC483274412DD9BFA
:102EF8002322F4120945EFF04FDF83274412ED9B9C
:102F08002322F41235A8892A6DBFB922D9B7F13D19
:102F1800370408408327441079771307F70FF98F90
:102F280093E707602322F410C9450145E13D8D3B35
:102F38002D35484C2D2435E51305803EEFF0EFDAAA
:102F4800B707004083A7070B371700209304C7442F
:102F58009840BA97370408405CC0832744107977B3
:102F68001307F70FF98F0567D98F2322F41011245F
:102F7800230404049840FD57E31BF7F8B7070840FB
:102F8800DC4FD1F702C002478567938777BBE3C957
:102F9800E7FA3E87824785073EC08247E35CF7FE33
:102FA80045B7D9454945B93DB717002083C7874478
:102FB800C1EBD520370408408327441293E7470024
:102FC8002322F4120945EFF04FD28327441293E7E6
:102FD80087002322F4128347C404F99B2306F404D0
:102FE8007C4493E707107CC4B717002083C7974435
:102FF800B1CBB707002083A7074A8297B7170020ED
:1030080083C79744A1C3B717002083A74744F8474D
:10301800B707002083A7C74898C3B717002083C7FE
:10302800874489C7B70700402147D8C3B707084076
:1030380023A0070296500654F644130181068280A5
:103048003D2085BFB717002083C78744CDDF130510
:10305800401FEFF08FC945BF37070140344385470C
:10306800B397A70093C7F7FFF58F3CC38280B707D4
:10307800014009671307171223A6E72023A8E720B2
:103088001307004098DBB8C3375732FF13070741CF
:1030980023A0E7308280511106C422C226C0B71788
:1030A800002093870756984314433707014023208D
:1030B800D7209443D45214DB9C439C573CC3370419
:1030C80000408D4464D4372700421C4793F707FC1F
:1030D80093E7E7011CC785473CC80545EFF0EFC0FB
:1030E80024C81545EFF06FC09D473CC80545EFF073
:1030F800CFBFBD473CC81945EFF02FBFA2401244CF
:1031080082443101828037030140832603039347B9
:10311800F5FFF58F2328F30213030320B7030140BB
:10312800938383211DA005812207A206FD1789CB61
:1031380093751500EDD99345F7FF6D8E558EE5B75C
:1031480023A0C2001103630B73009A8203260300B5
:1031580091479306000A1307F00FD9BF828019C15F
:1031680005458280511106C4EFF04FAEA2403101EF
:1031780082805D7106C00AC20EC412C616C81ACA79
:103188001ECC22CE26D02AD22ED432D636D83ADA3F
:103198003EDCF324703073255030A6C0AAC2370530
:1031A800084013054502232025003705084013056C
:1031B800850485450CC17300501037050840130578
:1031C80045020C412E818644164573907430731065
:1031D800553082401241A2413242C2425243E24338
:1031E800724482541255A2553256C2565257E2576B
:0431F800616182800F
:0400000510000000E7
:00000001FF
